{
  "address": "0x01950c095e6Ca058Cd5AEEB2ace48Ac53b2bF032",
  "abi": [
    {
      "inputs": [
        {
          "internalType": "contract IERC20",
          "name": "_token",
          "type": "address"
        }
      ],
      "stateMutability": "nonpayable",
      "type": "constructor"
    },
    {
      "anonymous": false,
      "inputs": [
        {
          "indexed": true,
          "internalType": "address",
          "name": "beneficiary",
          "type": "address"
        },
        {
          "indexed": false,
          "internalType": "uint256",
          "name": "amount",
          "type": "uint256"
        }
      ],
      "name": "Claimed",
      "type": "event"
    },
    {
      "anonymous": false,
      "inputs": [
        {
          "indexed": true,
          "internalType": "address",
          "name": "beneficiary",
          "type": "address"
        },
        {
          "indexed": false,
          "internalType": "uint64",
          "name": "startTime",
          "type": "uint64"
        },
        {
          "indexed": false,
          "internalType": "uint64",
          "name": "period",
          "type": "uint64"
        },
        {
          "indexed": false,
          "internalType": "uint256",
          "name": "amount",
          "type": "uint256"
        }
      ],
      "name": "VestingAdded",
      "type": "event"
    },
    {
      "inputs": [
        {
          "internalType": "address",
          "name": "beneficiary",
          "type": "address"
        },
        {
          "internalType": "uint64",
          "name": "startTime",
          "type": "uint64"
        },
        {
          "internalType": "uint64",
          "name": "period",
          "type": "uint64"
        },
        {
          "internalType": "uint256",
          "name": "amount",
          "type": "uint256"
        }
      ],
      "name": "addVesting",
      "outputs": [],
      "stateMutability": "nonpayable",
      "type": "function"
    },
    {
      "inputs": [],
      "name": "claim",
      "outputs": [],
      "stateMutability": "nonpayable",
      "type": "function"
    },
    {
      "inputs": [
        {
          "internalType": "address",
          "name": "beneficiary",
          "type": "address"
        }
      ],
      "name": "getPendingAmount",
      "outputs": [
        {
          "internalType": "uint256",
          "name": "",
          "type": "uint256"
        }
      ],
      "stateMutability": "view",
      "type": "function"
    },
    {
      "inputs": [],
      "name": "token",
      "outputs": [
        {
          "internalType": "contract IERC20",
          "name": "",
          "type": "address"
        }
      ],
      "stateMutability": "view",
      "type": "function"
    },
    {
      "inputs": [
        {
          "internalType": "address",
          "name": "",
          "type": "address"
        }
      ],
      "name": "vestings",
      "outputs": [
        {
          "internalType": "uint64",
          "name": "startTime",
          "type": "uint64"
        },
        {
          "internalType": "uint64",
          "name": "period",
          "type": "uint64"
        },
        {
          "internalType": "uint256",
          "name": "amount",
          "type": "uint256"
        },
        {
          "internalType": "uint256",
          "name": "claimed",
          "type": "uint256"
        }
      ],
      "stateMutability": "view",
      "type": "function"
    }
  ],
  "transactionHash": "0x23216f26f059d14562077fd70dca98ce5ae17cd304bccfb72683adfd9d87599f",
  "args": [
    "0x88629b29A0aA57F206606D293467A985Ca9f0222"
  ],
  "solcInputHash": "6a64b41b07ddf71992522baa083cf5e5",
  "bytecode": "0x60a060405234801561001057600080fd5b50604051610ba6380380610ba683398101604081905261002f91610088565b6001600160a01b0381166100775760405162461bcd60e51b815260206004820152600b60248201526a0e8ded6cadc40d2e64060f60ab1b604482015260640160405180910390fd5b6001600160a01b03166080526100b8565b60006020828403121561009a57600080fd5b81516001600160a01b03811681146100b157600080fd5b9392505050565b608051610ac56100e160003960008181610114015281816102f701526104900152610ac56000f3fe608060405234801561001057600080fd5b50600436106100575760003560e01c80632643296b1461005c5780634e71d92d146100715780637571af2214610079578063daf498631461009f578063fc0c546a1461010f575b600080fd5b61006f61006a366004610906565b61014e565b005b61006f610409565b61008c610087366004610951565b6104f0565b6040519081526020015b60405180910390f35b6100e36100ad366004610951565b60006020819052908152604090208054600182015460029092015467ffffffffffffffff80831693600160401b90930416919084565b6040805167ffffffffffffffff9586168152949093166020850152918301526060820152608001610096565b6101367f000000000000000000000000000000000000000000000000000000000000000081565b6040516001600160a01b039091168152602001610096565b8061018e5760405162461bcd60e51b815260206004820152600b60248201526a0616d6f756e7420697320360ac1b60448201526064015b60405180910390fd5b67ffffffffffffffff82166101d35760405162461bcd60e51b815260206004820152600b60248201526a0706572696f6420697320360ac1b6044820152606401610185565b428367ffffffffffffffff1610156102375760405162461bcd60e51b815260206004820152602160248201527f73746172742074696d65206d757374206265206c61746572207468616e206e6f6044820152607760f81b6064820152608401610185565b6001600160a01b0384166102815760405162461bcd60e51b81526020600482015260116024820152700c4cadccaccd2c6d2c2e4f240d2e64060f607b1b6044820152606401610185565b6001600160a01b0384166000908152602081905260409020600281015460018201546102ad9190610982565b156102ea5760405162461bcd60e51b815260206004820152600d60248201526c1d995cdd1a5b99c8195e1a5cdd609a1b6044820152606401610185565b61031f6001600160a01b037f0000000000000000000000000000000000000000000000000000000000000000163330856105e0565b6040805160808101825267ffffffffffffffff808716825285811660208084019182528385018781526000606086018181526001600160a01b038d1680835293829052908790209551865494518616600160401b026fffffffffffffffffffffffffffffffff1990951695169490941792909217845590516001840155905160029092019190915590517fc3ebba468b02f18a909d86d94a2dea64240fc1eb3aff8ae658730e44df40bf39906103fa9087908790879067ffffffffffffffff9384168152919092166020820152604081019190915260600190565b60405180910390a25050505050565b6000610414336104f0565b9050600081116104595760405162461bcd60e51b815260206004820152601060248201526f6e6f7468696e6720746f20636c61696d60801b6044820152606401610185565b3360009081526020819052604081206002810180549192849261047d908490610999565b909155506104b790506001600160a01b037f0000000000000000000000000000000000000000000000000000000000000000163384610651565b60405182815233907fd8138f8a3f377c5259ca548e70e4c2de94f129f5a11036a15b69513cba2b426a9060200160405180910390a25050565b6001600160a01b0381166000908152602081815260408083208151608081018352815467ffffffffffffffff808216808452600160401b909204169482019490945260018201549281019290925260020154606082015290421115806105625750602081015167ffffffffffffffff16155b156105705750600092915050565b6000816020015167ffffffffffffffff16826000015167ffffffffffffffff164261059b9190610982565b83604001516105aa91906109b1565b6105b491906109d0565b905081604001518111156105c9575060408101515b60608201516105d89082610982565b949350505050565b6040516001600160a01b038085166024830152831660448201526064810182905261064b9085906323b872dd60e01b906084015b60408051601f198184030181529190526020810180516001600160e01b03166001600160e01b031990931692909217909152610686565b50505050565b6040516001600160a01b03831660248201526044810182905261068190849063a9059cbb60e01b90606401610614565b505050565b60006106db826040518060400160405280602081526020017f5361666545524332303a206c6f772d6c6576656c2063616c6c206661696c6564815250856001600160a01b03166107589092919063ffffffff16565b80519091501561068157808060200190518101906106f991906109f2565b6106815760405162461bcd60e51b815260206004820152602a60248201527f5361666545524332303a204552433230206f7065726174696f6e20646964206e6044820152691bdd081cdd58d8d9595960b21b6064820152608401610185565b60606107678484600085610771565b90505b9392505050565b6060824710156107d25760405162461bcd60e51b815260206004820152602660248201527f416464726573733a20696e73756666696369656e742062616c616e636520666f6044820152651c8818d85b1b60d21b6064820152608401610185565b843b6108205760405162461bcd60e51b815260206004820152601d60248201527f416464726573733a2063616c6c20746f206e6f6e2d636f6e74726163740000006044820152606401610185565b600080866001600160a01b0316858760405161083c9190610a40565b60006040518083038185875af1925050503d8060008114610879576040519150601f19603f3d011682016040523d82523d6000602084013e61087e565b606091505b509150915061088e828286610899565b979650505050505050565b606083156108a857508161076a565b8251156108b85782518084602001fd5b8160405162461bcd60e51b81526004016101859190610a5c565b80356001600160a01b03811681146108e957600080fd5b919050565b803567ffffffffffffffff811681146108e957600080fd5b6000806000806080858703121561091c57600080fd5b610925856108d2565b9350610933602086016108ee565b9250610941604086016108ee565b9396929550929360600135925050565b60006020828403121561096357600080fd5b61076a826108d2565b634e487b7160e01b600052601160045260246000fd5b6000828210156109945761099461096c565b500390565b600082198211156109ac576109ac61096c565b500190565b60008160001904831182151516156109cb576109cb61096c565b500290565b6000826109ed57634e487b7160e01b600052601260045260246000fd5b500490565b600060208284031215610a0457600080fd5b8151801515811461076a57600080fd5b60005b83811015610a2f578181015183820152602001610a17565b8381111561064b5750506000910152565b60008251610a52818460208701610a14565b9190910192915050565b6020815260008251806020840152610a7b816040850160208701610a14565b601f01601f1916919091016040019291505056fea264697066735822122036ae362ea12b0540e8eba07970b7bf40c9f8409e43a2d94f4827b11fe1ac057b64736f6c63430008090033",
  "devdoc": {
    "kind": "dev",
    "methods": {
      "addVesting(address,uint64,uint64,uint256)": {
        "params": {
          "amount": "the token amount which will be vested.",
          "beneficiary": "beneficiary who can claim vesting linearly.",
          "period": "the period of the vesting.",
          "startTime": "the epoch timestamp that vesting starts."
        }
      },
      "getPendingAmount(address)": {
        "params": {
          "beneficiary": "The address of the beneficiary."
        },
        "returns": {
          "_0": "the beneficiary's claimable amount."
        }
      }
    },
    "version": 1
  },
  "userdoc": {
    "kind": "user",
    "methods": {
      "addVesting(address,uint64,uint64,uint256)": {
        "notice": "Add new vesting.if beneficiary already has unclaimed vesting, it is impossible create another vesting."
      },
      "claim()": {
        "notice": "Claim available amounts."
      },
      "getPendingAmount(address)": {
        "notice": "Calculate claimable amounts for beneficiary."
      }
    },
    "notice": "Linear vesting contract for QUARTZ (Polygon chain) This contract allow any body to create vesting for other guy with QUARTZ token. Vesting start time and vesting period will be determined by vesting creator.",
    "version": 1
  },
  "storageLayout": {
    "storage": [
      {
        "astId": 2249,
        "contract": "contracts/LinearVesting.sol:LinearVesting",
        "label": "vestings",
        "offset": 0,
        "slot": "0",
        "type": "t_mapping(t_address,t_struct(VestingInfo)2241_storage)"
      }
    ],
    "types": {
      "t_address": {
        "encoding": "inplace",
        "label": "address",
        "numberOfBytes": "20"
      },
      "t_mapping(t_address,t_struct(VestingInfo)2241_storage)": {
        "encoding": "mapping",
        "key": "t_address",
        "label": "mapping(address => struct LinearVesting.VestingInfo)",
        "numberOfBytes": "32",
        "value": "t_struct(VestingInfo)2241_storage"
      },
      "t_struct(VestingInfo)2241_storage": {
        "encoding": "inplace",
        "label": "struct LinearVesting.VestingInfo",
        "members": [
          {
            "astId": 2234,
            "contract": "contracts/LinearVesting.sol:LinearVesting",
            "label": "startTime",
            "offset": 0,
            "slot": "0",
            "type": "t_uint64"
          },
          {
            "astId": 2236,
            "contract": "contracts/LinearVesting.sol:LinearVesting",
            "label": "period",
            "offset": 8,
            "slot": "0",
            "type": "t_uint64"
          },
          {
            "astId": 2238,
            "contract": "contracts/LinearVesting.sol:LinearVesting",
            "label": "amount",
            "offset": 0,
            "slot": "1",
            "type": "t_uint256"
          },
          {
            "astId": 2240,
            "contract": "contracts/LinearVesting.sol:LinearVesting",
            "label": "claimed",
            "offset": 0,
            "slot": "2",
            "type": "t_uint256"
          }
        ],
        "numberOfBytes": "96"
      },
      "t_uint256": {
        "encoding": "inplace",
        "label": "uint256",
        "numberOfBytes": "32"
      },
      "t_uint64": {
        "encoding": "inplace",
        "label": "uint64",
        "numberOfBytes": "8"
      }
    }
  }
}