{
  "address": "0x3d9907510C20D760FbD41A91C688900186266F56",
  "abi": [
    {
      "inputs": [],
      "stateMutability": "nonpayable",
      "type": "constructor"
    },
    {
      "anonymous": false,
      "inputs": [
        {
          "indexed": true,
          "internalType": "address",
          "name": "owner",
          "type": "address"
        },
        {
          "indexed": true,
          "internalType": "address",
          "name": "spender",
          "type": "address"
        },
        {
          "indexed": false,
          "internalType": "uint256",
          "name": "value",
          "type": "uint256"
        }
      ],
      "name": "Approval",
      "type": "event"
    },
    {
      "anonymous": false,
      "inputs": [
        {
          "indexed": true,
          "internalType": "address",
          "name": "delegator",
          "type": "address"
        },
        {
          "indexed": true,
          "internalType": "address",
          "name": "fromDelegate",
          "type": "address"
        },
        {
          "indexed": true,
          "internalType": "address",
          "name": "toDelegate",
          "type": "address"
        }
      ],
      "name": "DelegateChanged",
      "type": "event"
    },
    {
      "anonymous": false,
      "inputs": [
        {
          "indexed": true,
          "internalType": "address",
          "name": "delegate",
          "type": "address"
        },
        {
          "indexed": false,
          "internalType": "uint256",
          "name": "previousBalance",
          "type": "uint256"
        },
        {
          "indexed": false,
          "internalType": "uint256",
          "name": "newBalance",
          "type": "uint256"
        }
      ],
      "name": "DelegateVotesChanged",
      "type": "event"
    },
    {
      "anonymous": false,
      "inputs": [
        {
          "indexed": true,
          "internalType": "address",
          "name": "previousOwner",
          "type": "address"
        },
        {
          "indexed": true,
          "internalType": "address",
          "name": "newOwner",
          "type": "address"
        }
      ],
      "name": "OwnershipTransferred",
      "type": "event"
    },
    {
      "anonymous": false,
      "inputs": [
        {
          "indexed": true,
          "internalType": "uint64",
          "name": "id",
          "type": "uint64"
        },
        {
          "indexed": true,
          "internalType": "address",
          "name": "owner",
          "type": "address"
        },
        {
          "indexed": true,
          "internalType": "address",
          "name": "beneficiary",
          "type": "address"
        },
        {
          "indexed": false,
          "internalType": "uint256",
          "name": "amount",
          "type": "uint256"
        },
        {
          "indexed": false,
          "internalType": "uint64",
          "name": "maturationTime",
          "type": "uint64"
        }
      ],
      "name": "Staked",
      "type": "event"
    },
    {
      "anonymous": false,
      "inputs": [
        {
          "indexed": true,
          "internalType": "address",
          "name": "from",
          "type": "address"
        },
        {
          "indexed": true,
          "internalType": "address",
          "name": "to",
          "type": "address"
        },
        {
          "indexed": false,
          "internalType": "uint256",
          "name": "value",
          "type": "uint256"
        }
      ],
      "name": "Transfer",
      "type": "event"
    },
    {
      "anonymous": false,
      "inputs": [
        {
          "indexed": true,
          "internalType": "uint64",
          "name": "id",
          "type": "uint64"
        },
        {
          "indexed": true,
          "internalType": "address",
          "name": "owner",
          "type": "address"
        },
        {
          "indexed": true,
          "internalType": "address",
          "name": "beneficiary",
          "type": "address"
        },
        {
          "indexed": false,
          "internalType": "uint256",
          "name": "amount",
          "type": "uint256"
        }
      ],
      "name": "Unstaked",
      "type": "event"
    },
    {
      "inputs": [
        {
          "internalType": "address",
          "name": "owner",
          "type": "address"
        },
        {
          "internalType": "address",
          "name": "spender",
          "type": "address"
        }
      ],
      "name": "allowance",
      "outputs": [
        {
          "internalType": "uint256",
          "name": "",
          "type": "uint256"
        }
      ],
      "stateMutability": "view",
      "type": "function"
    },
    {
      "inputs": [
        {
          "internalType": "address",
          "name": "spender",
          "type": "address"
        },
        {
          "internalType": "uint256",
          "name": "amount",
          "type": "uint256"
        }
      ],
      "name": "approve",
      "outputs": [
        {
          "internalType": "bool",
          "name": "",
          "type": "bool"
        }
      ],
      "stateMutability": "nonpayable",
      "type": "function"
    },
    {
      "inputs": [
        {
          "internalType": "address",
          "name": "account",
          "type": "address"
        }
      ],
      "name": "balanceOf",
      "outputs": [
        {
          "internalType": "uint256",
          "name": "",
          "type": "uint256"
        }
      ],
      "stateMutability": "view",
      "type": "function"
    },
    {
      "inputs": [
        {
          "internalType": "address",
          "name": "",
          "type": "address"
        },
        {
          "internalType": "uint32",
          "name": "",
          "type": "uint32"
        }
      ],
      "name": "checkpoints",
      "outputs": [
        {
          "internalType": "uint32",
          "name": "fromBlock",
          "type": "uint32"
        },
        {
          "internalType": "uint256",
          "name": "votes",
          "type": "uint256"
        }
      ],
      "stateMutability": "view",
      "type": "function"
    },
    {
      "inputs": [],
      "name": "decimals",
      "outputs": [
        {
          "internalType": "uint8",
          "name": "",
          "type": "uint8"
        }
      ],
      "stateMutability": "view",
      "type": "function"
    },
    {
      "inputs": [
        {
          "internalType": "address",
          "name": "spender",
          "type": "address"
        },
        {
          "internalType": "uint256",
          "name": "subtractedValue",
          "type": "uint256"
        }
      ],
      "name": "decreaseAllowance",
      "outputs": [
        {
          "internalType": "bool",
          "name": "",
          "type": "bool"
        }
      ],
      "stateMutability": "nonpayable",
      "type": "function"
    },
    {
      "inputs": [
        {
          "internalType": "address",
          "name": "delegatee",
          "type": "address"
        }
      ],
      "name": "delegate",
      "outputs": [],
      "stateMutability": "nonpayable",
      "type": "function"
    },
    {
      "inputs": [
        {
          "internalType": "address",
          "name": "",
          "type": "address"
        }
      ],
      "name": "delegates",
      "outputs": [
        {
          "internalType": "address",
          "name": "",
          "type": "address"
        }
      ],
      "stateMutability": "view",
      "type": "function"
    },
    {
      "inputs": [
        {
          "internalType": "address",
          "name": "account",
          "type": "address"
        }
      ],
      "name": "getCurrentVotes",
      "outputs": [
        {
          "internalType": "uint256",
          "name": "",
          "type": "uint256"
        }
      ],
      "stateMutability": "view",
      "type": "function"
    },
    {
      "inputs": [],
      "name": "governor",
      "outputs": [
        {
          "internalType": "contract IQuartzGovernor",
          "name": "",
          "type": "address"
        }
      ],
      "stateMutability": "view",
      "type": "function"
    },
    {
      "inputs": [
        {
          "internalType": "address",
          "name": "spender",
          "type": "address"
        },
        {
          "internalType": "uint256",
          "name": "addedValue",
          "type": "uint256"
        }
      ],
      "name": "increaseAllowance",
      "outputs": [
        {
          "internalType": "bool",
          "name": "",
          "type": "bool"
        }
      ],
      "stateMutability": "nonpayable",
      "type": "function"
    },
    {
      "inputs": [
        {
          "internalType": "address",
          "name": "user",
          "type": "address"
        },
        {
          "internalType": "uint256",
          "name": "amount",
          "type": "uint256"
        }
      ],
      "name": "moveVotesFromGovernor",
      "outputs": [],
      "stateMutability": "nonpayable",
      "type": "function"
    },
    {
      "inputs": [
        {
          "internalType": "address",
          "name": "user",
          "type": "address"
        },
        {
          "internalType": "uint256",
          "name": "amount",
          "type": "uint256"
        }
      ],
      "name": "moveVotesToGovernor",
      "outputs": [],
      "stateMutability": "nonpayable",
      "type": "function"
    },
    {
      "inputs": [],
      "name": "name",
      "outputs": [
        {
          "internalType": "string",
          "name": "",
          "type": "string"
        }
      ],
      "stateMutability": "view",
      "type": "function"
    },
    {
      "inputs": [
        {
          "internalType": "address",
          "name": "",
          "type": "address"
        }
      ],
      "name": "numCheckpoints",
      "outputs": [
        {
          "internalType": "uint32",
          "name": "",
          "type": "uint32"
        }
      ],
      "stateMutability": "view",
      "type": "function"
    },
    {
      "inputs": [],
      "name": "owner",
      "outputs": [
        {
          "internalType": "address",
          "name": "",
          "type": "address"
        }
      ],
      "stateMutability": "view",
      "type": "function"
    },
    {
      "inputs": [],
      "name": "renounceOwnership",
      "outputs": [],
      "stateMutability": "nonpayable",
      "type": "function"
    },
    {
      "inputs": [
        {
          "internalType": "contract IQuartzGovernor",
          "name": "_governor",
          "type": "address"
        }
      ],
      "name": "setGovernor",
      "outputs": [],
      "stateMutability": "nonpayable",
      "type": "function"
    },
    {
      "inputs": [
        {
          "internalType": "uint256",
          "name": "_amount",
          "type": "uint256"
        },
        {
          "internalType": "address",
          "name": "_beneficiary",
          "type": "address"
        },
        {
          "internalType": "uint64",
          "name": "_period",
          "type": "uint64"
        }
      ],
      "name": "stake",
      "outputs": [],
      "stateMutability": "nonpayable",
      "type": "function"
    },
    {
      "inputs": [],
      "name": "stakeLength",
      "outputs": [
        {
          "internalType": "uint64",
          "name": "",
          "type": "uint64"
        }
      ],
      "stateMutability": "view",
      "type": "function"
    },
    {
      "inputs": [
        {
          "internalType": "uint64",
          "name": "",
          "type": "uint64"
        }
      ],
      "name": "stakes",
      "outputs": [
        {
          "internalType": "address",
          "name": "owner",
          "type": "address"
        },
        {
          "internalType": "address",
          "name": "beneficiary",
          "type": "address"
        },
        {
          "internalType": "uint256",
          "name": "amount",
          "type": "uint256"
        },
        {
          "internalType": "uint64",
          "name": "period",
          "type": "uint64"
        },
        {
          "internalType": "uint64",
          "name": "maturationTimestamp",
          "type": "uint64"
        },
        {
          "internalType": "bool",
          "name": "active",
          "type": "bool"
        }
      ],
      "stateMutability": "view",
      "type": "function"
    },
    {
      "inputs": [],
      "name": "symbol",
      "outputs": [
        {
          "internalType": "string",
          "name": "",
          "type": "string"
        }
      ],
      "stateMutability": "view",
      "type": "function"
    },
    {
      "inputs": [],
      "name": "totalStaked",
      "outputs": [
        {
          "internalType": "uint256",
          "name": "",
          "type": "uint256"
        }
      ],
      "stateMutability": "view",
      "type": "function"
    },
    {
      "inputs": [],
      "name": "totalSupply",
      "outputs": [
        {
          "internalType": "uint256",
          "name": "",
          "type": "uint256"
        }
      ],
      "stateMutability": "view",
      "type": "function"
    },
    {
      "inputs": [
        {
          "internalType": "address",
          "name": "recipient",
          "type": "address"
        },
        {
          "internalType": "uint256",
          "name": "amount",
          "type": "uint256"
        }
      ],
      "name": "transfer",
      "outputs": [
        {
          "internalType": "bool",
          "name": "",
          "type": "bool"
        }
      ],
      "stateMutability": "nonpayable",
      "type": "function"
    },
    {
      "inputs": [
        {
          "internalType": "address",
          "name": "sender",
          "type": "address"
        },
        {
          "internalType": "address",
          "name": "recipient",
          "type": "address"
        },
        {
          "internalType": "uint256",
          "name": "amount",
          "type": "uint256"
        }
      ],
      "name": "transferFrom",
      "outputs": [
        {
          "internalType": "bool",
          "name": "",
          "type": "bool"
        }
      ],
      "stateMutability": "nonpayable",
      "type": "function"
    },
    {
      "inputs": [
        {
          "internalType": "address",
          "name": "newOwner",
          "type": "address"
        }
      ],
      "name": "transferOwnership",
      "outputs": [],
      "stateMutability": "nonpayable",
      "type": "function"
    },
    {
      "inputs": [
        {
          "internalType": "uint64",
          "name": "_stakeId",
          "type": "uint64"
        }
      ],
      "name": "unstake",
      "outputs": [],
      "stateMutability": "nonpayable",
      "type": "function"
    },
    {
      "inputs": [
        {
          "internalType": "address",
          "name": "",
          "type": "address"
        }
      ],
      "name": "userVotesRep",
      "outputs": [
        {
          "internalType": "uint256",
          "name": "",
          "type": "uint256"
        }
      ],
      "stateMutability": "view",
      "type": "function"
    }
  ],
  "transactionHash": "0x939cf3bc8086455baa472d8cbce0181531ad026460d36c0a28f8495a856b2a51",
  "args": [],
  "solcInputHash": "282f8fd6f5ffb8f4133bc8bf475d6b31",
  "bytecode": "0x60806040523480156200001157600080fd5b50604080518082018252600981526853616e64636c6f636b60b81b60208083019182528351808501909452600684526528aaa0a92a2d60d11b908401528151919291620000619160039162000280565b5080516200007790600490602084019062000280565b50506005805460ff191660121790555060006200009362000106565b60058054610100600160a81b0319166101006001600160a01b03841690810291909117909155604051919250906000907f8be0079c531659141344cd1fd0a4f28419497f9722a3daafe3b4186f6b6457e0908290a35062000100336a52b7d2dcc80cd2e40000006200010a565b6200031c565b3390565b6001600160a01b03821662000166576040805162461bcd60e51b815260206004820152601f60248201527f45524332303a206d696e7420746f20746865207a65726f206164647265737300604482015290519081900360640190fd5b620001746000838362000219565b62000190816002546200021e60201b620014261790919060201c565b6002556001600160a01b03821660009081526020818152604090912054620001c3918390620014266200021e821b17901c565b6001600160a01b0383166000818152602081815260408083209490945583518581529351929391927fddf252ad1be2c89b69c2b068fc378daa952ba7f163c4a11628f55a4df523b3ef9281900390910190a35050565b505050565b60008282018381101562000279576040805162461bcd60e51b815260206004820152601b60248201527f536166654d6174683a206164646974696f6e206f766572666c6f770000000000604482015290519081900360640190fd5b9392505050565b828054600181600116156101000203166002900490600052602060002090601f016020900481019282601f10620002c357805160ff1916838001178555620002f3565b82800160010185558215620002f3579182015b82811115620002f3578251825591602001919060010190620002d6565b506200030192915062000305565b5090565b5b8082111562000301576000815560010162000306565b611f66806200032c6000396000f3fe608060405234801561001057600080fd5b50600436106101cf5760003560e01c806395d89b4111610104578063d4967282116100a2578063f1127ed811610071578063f1127ed814610600578063f2fde38b14610652578063f977de1c14610678578063fe85822d146106a4576101cf565b8063d49672821461055c578063dd62ed3e14610580578063e197efbe146105ae578063f0601bdb146105da576101cf565b8063af14be5d116100de578063af14be5d1461047a578063b4b5ea57146104ea578063c42cf53514610510578063d29ab87a14610536576101cf565b806395d89b411461041a578063a457c2d714610422578063a9059cbb1461044e576101cf565b8063587cde1e1161017157806370a082311161014b57806370a08231146103dc578063715018a614610402578063817b1cd21461040a5780638da5cb5b14610412576101cf565b8063587cde1e1461034f5780635c19a95c146103755780636fcfff451461039d576101cf565b806318160ddd116101ad57806318160ddd146102b557806323b872dd146102cf578063313ce567146103055780633950935114610323576101cf565b806306fdde03146101d4578063095ea7b3146102515780630c340a2414610291575b600080fd5b6101dc6106df565b6040805160208082528351818301528351919283929083019185019080838360005b838110156102165781810151838201526020016101fe565b50505050905090810190601f1680156102435780820380516001836020036101000a031916815260200191505b509250505060405180910390f35b61027d6004803603604081101561026757600080fd5b506001600160a01b038135169060200135610775565b604080519115158252519081900360200190f35b610299610792565b604080516001600160a01b039092168252519081900360200190f35b6102bd6107a1565b60408051918252519081900360200190f35b61027d600480360360608110156102e557600080fd5b506001600160a01b038135811691602081013590911690604001356107a7565b61030d61082e565b6040805160ff9092168252519081900360200190f35b61027d6004803603604081101561033957600080fd5b506001600160a01b038135169060200135610837565b6102996004803603602081101561036557600080fd5b50356001600160a01b0316610885565b61039b6004803603602081101561038b57600080fd5b50356001600160a01b03166108a0565b005b6103c3600480360360208110156103b357600080fd5b50356001600160a01b03166108ad565b6040805163ffffffff9092168252519081900360200190f35b6102bd600480360360208110156103f257600080fd5b50356001600160a01b03166108c5565b61039b6108e0565b6102bd6109a4565b6102996109aa565b6101dc6109be565b61027d6004803603604081101561043857600080fd5b506001600160a01b038135169060200135610a1f565b61027d6004803603604081101561046457600080fd5b506001600160a01b038135169060200135610a87565b6104a06004803603602081101561049057600080fd5b50356001600160401b0316610a9b565b604080516001600160a01b039788168152959096166020860152848601939093526001600160401b039182166060850152166080830152151560a082015290519081900360c00190f35b6102bd6004803603602081101561050057600080fd5b50356001600160a01b0316610af1565b61039b6004803603602081101561052657600080fd5b50356001600160a01b0316610b55565b61039b6004803603602081101561054c57600080fd5b50356001600160401b0316610c46565b610564610ee3565b604080516001600160401b039092168252519081900360200190f35b6102bd6004803603604081101561059657600080fd5b506001600160a01b0381358116916020013516610ef2565b61039b600480360360408110156105c457600080fd5b506001600160a01b038135169060200135610f1d565b6102bd600480360360208110156105f057600080fd5b50356001600160a01b0316610f8b565b6106326004803603604081101561061657600080fd5b5080356001600160a01b0316906020013563ffffffff16610f9d565b6040805163ffffffff909316835260208301919091528051918290030190f35b61039b6004803603602081101561066857600080fd5b50356001600160a01b0316610fca565b61039b6004803603604081101561068e57600080fd5b506001600160a01b0381351690602001356110ea565b61039b600480360360608110156106ba57600080fd5b5080359060208101356001600160a01b031690604001356001600160401b0316611154565b60038054604080516020601f600260001961010060018816150201909516949094049384018190048102820181019092528281526060939092909183018282801561076b5780601f106107405761010080835404028352916020019161076b565b820191906000526020600020905b81548152906001019060200180831161074e57829003601f168201915b5050505050905090565b6000610789610782611480565b8484611484565b50600192915050565b6006546001600160a01b031681565b60025490565b60006107b4848484611570565b610824846107c0611480565b61081f85604051806060016040528060288152602001611e71602891396001600160a01b038a166000908152600160205260408120906107fe611480565b6001600160a01b0316815260208101919091526040016000205491906116cb565b611484565b5060019392505050565b60055460ff1690565b6000610789610844611480565b8461081f8560016000610855611480565b6001600160a01b03908116825260208083019390935260409182016000908120918c168152925290205490611426565b6008602052600090815260409020546001600160a01b031681565b6108aa3382611762565b50565b600a6020526000908152604090205463ffffffff1681565b6001600160a01b031660009081526020819052604090205490565b6108e8611480565b6001600160a01b03166108f96109aa565b6001600160a01b031614610954576040805162461bcd60e51b815260206004820181905260248201527f4f776e61626c653a2063616c6c6572206973206e6f7420746865206f776e6572604482015290519081900360640190fd5b60055460405160009161010090046001600160a01b0316907f8be0079c531659141344cd1fd0a4f28419497f9722a3daafe3b4186f6b6457e0908390a360058054610100600160a81b0319169055565b600d5481565b60055461010090046001600160a01b031690565b60048054604080516020601f600260001961010060018816150201909516949094049384018190048102820181019092528281526060939092909183018282801561076b5780601f106107405761010080835404028352916020019161076b565b6000610789610a2c611480565b8461081f85604051806060016040528060258152602001611f0c6025913960016000610a56611480565b6001600160a01b03908116825260208083019390935260409182016000908120918d168152925290205491906116cb565b6000610789610a94611480565b8484611570565b600c6020526000908152604090208054600182015460028301546003909301546001600160a01b039283169391909216916001600160401b0380821691600160401b81049091169060ff600160801b9091041686565b6001600160a01b0381166000908152600a602052604081205463ffffffff1680610b1c576000610b4e565b6001600160a01b038316600090815260096020908152604080832063ffffffff60001986011684529091529020600101545b9392505050565b610b5d611480565b6001600160a01b0316610b6e6109aa565b6001600160a01b031614610bc9576040805162461bcd60e51b815260206004820181905260248201527f4f776e61626c653a2063616c6c6572206973206e6f7420746865206f776e6572604482015290519081900360640190fd5b6001600160a01b038116610c24576040805162461bcd60e51b815260206004820152601f60248201527f51554152545a3a20476f7665726e6f722063616e6e6f74206265207a65726f00604482015290519081900360640190fd5b600680546001600160a01b0319166001600160a01b0392909216919091179055565b600b546001600160401b0390811690821610610c9e576040805162461bcd60e51b81526020600482015260126024820152711455505495168e88125b9d985b1a59081a5960721b604482015290519081900360640190fd5b6001600160401b0381166000908152600c60205260409020610cbe61183d565b60038201546001600160401b03918216600160401b9091049091161115610d2c576040805162461bcd60e51b815260206004820152601c60248201527f51554152545a3a204e6f7420726561647920746f20756e7374616b6500000000604482015290519081900360640190fd5b6003810154600160801b900460ff16610d8c576040805162461bcd60e51b815260206004820152601860248201527f51554152545a3a20416c726561647920756e7374616b65640000000000000000604482015290519081900360640190fd5b80546001600160a01b03163314610dde576040805162461bcd60e51b815260206004820152601160248201527028aaa0a92a2d1d102737ba1037bbb732b960791b604482015290519081900360640190fd5b610ded30338360020154611570565b60038101805460ff60801b19169055600281015460018201546001600160a01b0316600090815260076020526040902054610e2791611841565b6001820180546001600160a01b039081166000908152600760209081526040808320959095559254821681526008909252918120546002840154610e709391909116919061189e565b6002810154600d54610e8191611841565b600d5560018101548154600283015460408051918252516001600160a01b039384169392909216916001600160401b038616917f2806d44cd3ddd552c2fb779db451721a692f4e817549bbed3cbaa3e1d795f5d9919081900360200190a45050565b600b546001600160401b031681565b6001600160a01b03918216600090815260016020908152604080832093909416825291909152205490565b6006546001600160a01b03163314610f7c576040805162461bcd60e51b815260206004820152601e60248201527f51554152545a3a206f6e6c7920676f7665726e6f722063616e2063616c6c0000604482015290519081900360640190fd5b610f8782338361189e565b5050565b60076020526000908152604090205481565b60096020908152600092835260408084209091529082529020805460019091015463ffffffff9091169082565b610fd2611480565b6001600160a01b0316610fe36109aa565b6001600160a01b03161461103e576040805162461bcd60e51b815260206004820181905260248201527f4f776e61626c653a2063616c6c6572206973206e6f7420746865206f776e6572604482015290519081900360640190fd5b6001600160a01b0381166110835760405162461bcd60e51b8152600401808060200182810382526026815260200180611dac6026913960400191505060405180910390fd5b6005546040516001600160a01b0380841692610100900416907f8be0079c531659141344cd1fd0a4f28419497f9722a3daafe3b4186f6b6457e090600090a3600580546001600160a01b0390921661010002610100600160a81b0319909216919091179055565b6006546001600160a01b03163314611149576040805162461bcd60e51b815260206004820152601e60248201527f51554152545a3a206f6e6c7920676f7665726e6f722063616e2063616c6c0000604482015290519081900360640190fd5b610f8733838361189e565b6001600160a01b0382166111995760405162461bcd60e51b8152600401808060200182810382526021815260200180611e1a6021913960400191505060405180910390fd5b600083116111d85760405162461bcd60e51b8152600401808060200182810382526028815260200180611d616028913960400191505060405180910390fd5b6111e3333085611570565b600b5433906001600160401b0316600061120e846111ff61183d565b6001600160401b031690611b02565b9050611218611d2b565b506040805160c0810182526001600160a01b03808616825287811660208084018281528486018c81526001600160401b03808c166060880190815289821660808901908152600160a08a018181528d85166000908152600c89528c81208c518154908d166001600160a01b03199182161782559851938101805494909c16939098169290921790995593516002860155905160039094018054915197511515600160801b0260ff60801b19988416600160401b026fffffffffffffffff0000000000000000199690941667ffffffffffffffff199093169290921794909416919091179590951694909417905590825260079052919091205461131b9088611426565b6001600160a01b0380881660009081526007602090815260408083209490945560089052919091205416611358576113538687611762565b61137d565b6001600160a01b0380871660009081526008602052604081205461137d92168961189e565b600b54611394906001600160401b03166001611b02565b600b805467ffffffffffffffff19166001600160401b0392909216919091179055600d546113c29088611426565b600d55604080518881526001600160401b03848116602083015282516001600160a01b03808b169490891693928816927f0e19c1574798346661139391be6cc6e850cc2373284e6f60d667a3be63bb3dd9929081900390910190a450505050505050565b600082820183811015610b4e576040805162461bcd60e51b815260206004820152601b60248201527f536166654d6174683a206164646974696f6e206f766572666c6f770000000000604482015290519081900360640190fd5b3390565b6001600160a01b0383166114c95760405162461bcd60e51b8152600401808060200182810382526024815260200180611ee86024913960400191505060405180910390fd5b6001600160a01b03821661150e5760405162461bcd60e51b8152600401808060200182810382526022815260200180611dd26022913960400191505060405180910390fd5b6001600160a01b03808416600081815260016020908152604080832094871680845294825291829020859055815185815291517f8c5be1e5ebec7d5bd14f71427d1e84f3dd0314c0f7b2291e5b200ac8c7c3b9259281900390910190a3505050565b6001600160a01b0383166115b55760405162461bcd60e51b8152600401808060200182810382526025815260200180611ec36025913960400191505060405180910390fd5b6001600160a01b0382166115fa5760405162461bcd60e51b8152600401808060200182810382526023815260200180611d896023913960400191505060405180910390fd5b611605838383611afd565b61164281604051806060016040528060268152602001611df4602691396001600160a01b03861660009081526020819052604090205491906116cb565b6001600160a01b0380851660009081526020819052604080822093909355908416815220546116719082611426565b6001600160a01b038084166000818152602081815260409182902094909455805185815290519193928716927fddf252ad1be2c89b69c2b068fc378daa952ba7f163c4a11628f55a4df523b3ef92918290030190a3505050565b6000818484111561175a5760405162461bcd60e51b81526004018080602001828103825283818151815260200191508051906020019080838360005b8381101561171f578181015183820152602001611707565b50505050905090810190601f16801561174c5780820380516001836020036101000a031916815260200191505b509250505060405180910390fd5b505050900390565b6001600160a01b0381166117bd576040805162461bcd60e51b815260206004820152601f60248201527f51554152545a3a2064656c6567617465652063616e6e6f742062652030783000604482015290519081900360640190fd5b6001600160a01b03808316600081815260086020818152604080842080546007845282862054949093528787166001600160a01b03198416811790915590519190951694919391928592917f3134e8a2e6d97e929a7e54011ea5485d7d196dd5f0ba4d4ef95803e8e3fc257f9190a461183782848361189e565b50505050565b4290565b600082821115611898576040805162461bcd60e51b815260206004820152601e60248201527f536166654d6174683a207375627472616374696f6e206f766572666c6f770000604482015290519081900360640190fd5b50900390565b816001600160a01b0316836001600160a01b0316141580156118c05750600081115b15611afd576001600160a01b03831615611a70576001600160a01b0383166000908152600a602052604081205463ffffffff169081611900576000611932565b6001600160a01b038516600090815260096020908152604080832063ffffffff60001987011684529091529020600101545b905082811015611a37576006546001600160a01b031663cba7f623866119588685611841565b60006001600160a01b0316886001600160a01b0316146040518463ffffffff1660e01b815260040180846001600160a01b0316815260200183815260200182151581526020019350505050600060405180830381600087803b1580156119bd57600080fd5b505af11580156119d1573d6000803e3d6000fd5b5050506001600160a01b0386166000908152600a602052604090205463ffffffff1692505081611a02576000611a34565b6001600160a01b038516600090815260096020908152604080832063ffffffff60001987011684529091529020600101545b90505b6000611a5e846040518060600160405280602a8152602001611e99602a91398491906116cb565b9050611a6c86848484611b68565b5050505b6001600160a01b03821615611afd576001600160a01b0382166000908152600a602052604081205463ffffffff169081611aab576000611add565b6001600160a01b038416600090815260096020908152604080832063ffffffff60001987011684529091529020600101545b90506000611aeb8285611426565b9050611af985848484611b68565b5050505b505050565b60008282016001600160401b038085169082161015610b4e576040805162461bcd60e51b815260206004820152601b60248201527f536166654d6174683a206164646974696f6e206f766572666c6f770000000000604482015290519081900360640190fd5b6000611b8c43604051806060016040528060368152602001611e3b60369139611ccd565b905060008463ffffffff16118015611bd557506001600160a01b038516600090815260096020908152604080832063ffffffff6000198901811685529252909120548282169116145b15611c12576001600160a01b038516600090815260096020908152604080832063ffffffff60001989011684529091529020600101829055611c83565b60408051808201825263ffffffff808416825260208083018681526001600160a01b038a166000818152600984528681208b8616825284528681209551865490861663ffffffff199182161787559251600196870155908152600a9092529390208054928801909116919092161790555b604080518481526020810184905281516001600160a01b038816927fdec2bacdd2f05b59de34da9b523dff8be42e5e38e818c82fdb0bae774387a724928290030190a25050505050565b6000816401000000008410611d235760405162461bcd60e51b815260206004820181815283516024840152835190928392604490910191908501908083836000831561171f578181015183820152602001611707565b509192915050565b6040805160c081018252600080825260208201819052918101829052606081018290526080810182905260a08101919091529056fe51554152545a3a20416d6f756e74206d7573742062652067726561746572207468616e207a65726f45524332303a207472616e7366657220746f20746865207a65726f20616464726573734f776e61626c653a206e6577206f776e657220697320746865207a65726f206164647265737345524332303a20617070726f766520746f20746865207a65726f206164647265737345524332303a207472616e7366657220616d6f756e7420657863656564732062616c616e636551554152545a3a2042656e65666963696172792063616e6e6f742062652030783051756172747a3a3a5f7772697465436865636b706f696e743a20626c6f636b206e756d6265722065786365656473203332206269747345524332303a207472616e7366657220616d6f756e74206578636565647320616c6c6f77616e636551756172747a3a3a5f6d6f7665566f7465733a20766f746520616d6f756e7420756e646572666c6f777345524332303a207472616e736665722066726f6d20746865207a65726f206164647265737345524332303a20617070726f76652066726f6d20746865207a65726f206164647265737345524332303a2064656372656173656420616c6c6f77616e63652062656c6f77207a65726fa264697066735822122082321637ea2bf3f7229b5a42a1363fead09d538b64b27643d8a367468561897064736f6c63430007030033",
  "devdoc": {
    "kind": "dev",
    "methods": {
      "allowance(address,address)": {
        "details": "See {IERC20-allowance}."
      },
      "approve(address,uint256)": {
        "details": "See {IERC20-approve}. Requirements: - `spender` cannot be the zero address."
      },
      "balanceOf(address)": {
        "details": "See {IERC20-balanceOf}."
      },
      "decimals()": {
        "details": "Returns the number of decimals used to get its user representation. For example, if `decimals` equals `2`, a balance of `505` tokens should be displayed to a user as `5,05` (`505 / 10 ** 2`). Tokens usually opt for a value of 18, imitating the relationship between Ether and Wei. This is the value {ERC20} uses, unless {_setupDecimals} is called. NOTE: This information is only used for _display_ purposes: it in no way affects any of the arithmetic of the contract, including {IERC20-balanceOf} and {IERC20-transfer}."
      },
      "decreaseAllowance(address,uint256)": {
        "details": "Atomically decreases the allowance granted to `spender` by the caller. This is an alternative to {approve} that can be used as a mitigation for problems described in {IERC20-approve}. Emits an {Approval} event indicating the updated allowance. Requirements: - `spender` cannot be the zero address. - `spender` must have allowance for the caller of at least `subtractedValue`."
      },
      "delegate(address)": {
        "params": {
          "delegatee": "The address to delegate votes to"
        }
      },
      "getCurrentVotes(address)": {
        "params": {
          "account": "The address to get votes balance"
        },
        "returns": {
          "_0": "The number of current votes for `account`"
        }
      },
      "increaseAllowance(address,uint256)": {
        "details": "Atomically increases the allowance granted to `spender` by the caller. This is an alternative to {approve} that can be used as a mitigation for problems described in {IERC20-approve}. Emits an {Approval} event indicating the updated allowance. Requirements: - `spender` cannot be the zero address."
      },
      "name()": {
        "details": "Returns the name of the token."
      },
      "owner()": {
        "details": "Returns the address of the current owner."
      },
      "renounceOwnership()": {
        "details": "Leaves the contract without owner. It will not be possible to call `onlyOwner` functions anymore. Can only be called by the current owner. NOTE: Renouncing ownership will leave the contract without an owner, thereby removing any functionality that is only available to the owner."
      },
      "symbol()": {
        "details": "Returns the symbol of the token, usually a shorter version of the name."
      },
      "totalSupply()": {
        "details": "See {IERC20-totalSupply}."
      },
      "transfer(address,uint256)": {
        "details": "See {IERC20-transfer}. Requirements: - `recipient` cannot be the zero address. - the caller must have a balance of at least `amount`."
      },
      "transferFrom(address,address,uint256)": {
        "details": "See {IERC20-transferFrom}. Emits an {Approval} event indicating the updated allowance. This is not required by the EIP. See the note at the beginning of {ERC20}. Requirements: - `sender` and `recipient` cannot be the zero address. - `sender` must have a balance of at least `amount`. - the caller must have allowance for ``sender``'s tokens of at least `amount`."
      },
      "transferOwnership(address)": {
        "details": "Transfers ownership of the contract to a new account (`newOwner`). Can only be called by the current owner."
      }
    },
    "version": 1
  },
  "userdoc": {
    "kind": "user",
    "methods": {
      "delegate(address)": {
        "notice": "Delegate votes from `msg.sender` to `delegatee`"
      },
      "getCurrentVotes(address)": {
        "notice": "Gets the current votes balance for `account`"
      }
    },
    "version": 1
  },
  "storageLayout": {
    "storage": [
      {
        "astId": 837,
        "contract": "contracts/Quartz.sol:Quartz",
        "label": "_balances",
        "offset": 0,
        "slot": "0",
        "type": "t_mapping(t_address,t_uint256)"
      },
      {
        "astId": 843,
        "contract": "contracts/Quartz.sol:Quartz",
        "label": "_allowances",
        "offset": 0,
        "slot": "1",
        "type": "t_mapping(t_address,t_mapping(t_address,t_uint256))"
      },
      {
        "astId": 845,
        "contract": "contracts/Quartz.sol:Quartz",
        "label": "_totalSupply",
        "offset": 0,
        "slot": "2",
        "type": "t_uint256"
      },
      {
        "astId": 847,
        "contract": "contracts/Quartz.sol:Quartz",
        "label": "_name",
        "offset": 0,
        "slot": "3",
        "type": "t_string_storage"
      },
      {
        "astId": 849,
        "contract": "contracts/Quartz.sol:Quartz",
        "label": "_symbol",
        "offset": 0,
        "slot": "4",
        "type": "t_string_storage"
      },
      {
        "astId": 851,
        "contract": "contracts/Quartz.sol:Quartz",
        "label": "_decimals",
        "offset": 0,
        "slot": "5",
        "type": "t_uint8"
      },
      {
        "astId": 290,
        "contract": "contracts/Quartz.sol:Quartz",
        "label": "_owner",
        "offset": 1,
        "slot": "5",
        "type": "t_address"
      },
      {
        "astId": 2289,
        "contract": "contracts/Quartz.sol:Quartz",
        "label": "governor",
        "offset": 0,
        "slot": "6",
        "type": "t_contract(IQuartzGovernor)4955"
      },
      {
        "astId": 2293,
        "contract": "contracts/Quartz.sol:Quartz",
        "label": "userVotesRep",
        "offset": 0,
        "slot": "7",
        "type": "t_mapping(t_address,t_uint256)"
      },
      {
        "astId": 2297,
        "contract": "contracts/Quartz.sol:Quartz",
        "label": "delegates",
        "offset": 0,
        "slot": "8",
        "type": "t_mapping(t_address,t_address)"
      },
      {
        "astId": 2303,
        "contract": "contracts/Quartz.sol:Quartz",
        "label": "checkpoints",
        "offset": 0,
        "slot": "9",
        "type": "t_mapping(t_address,t_mapping(t_uint32,t_struct(Checkpoint)2287_storage))"
      },
      {
        "astId": 2307,
        "contract": "contracts/Quartz.sol:Quartz",
        "label": "numCheckpoints",
        "offset": 0,
        "slot": "10",
        "type": "t_mapping(t_address,t_uint32)"
      },
      {
        "astId": 2309,
        "contract": "contracts/Quartz.sol:Quartz",
        "label": "stakeLength",
        "offset": 0,
        "slot": "11",
        "type": "t_uint64"
      },
      {
        "astId": 2313,
        "contract": "contracts/Quartz.sol:Quartz",
        "label": "stakes",
        "offset": 0,
        "slot": "12",
        "type": "t_mapping(t_uint64,t_struct(StakeInfo)2282_storage)"
      },
      {
        "astId": 2315,
        "contract": "contracts/Quartz.sol:Quartz",
        "label": "totalStaked",
        "offset": 0,
        "slot": "13",
        "type": "t_uint256"
      }
    ],
    "types": {
      "t_address": {
        "encoding": "inplace",
        "label": "address",
        "numberOfBytes": "20"
      },
      "t_bool": {
        "encoding": "inplace",
        "label": "bool",
        "numberOfBytes": "1"
      },
      "t_contract(IQuartzGovernor)4955": {
        "encoding": "inplace",
        "label": "contract IQuartzGovernor",
        "numberOfBytes": "20"
      },
      "t_mapping(t_address,t_address)": {
        "encoding": "mapping",
        "key": "t_address",
        "label": "mapping(address => address)",
        "numberOfBytes": "32",
        "value": "t_address"
      },
      "t_mapping(t_address,t_mapping(t_address,t_uint256))": {
        "encoding": "mapping",
        "key": "t_address",
        "label": "mapping(address => mapping(address => uint256))",
        "numberOfBytes": "32",
        "value": "t_mapping(t_address,t_uint256)"
      },
      "t_mapping(t_address,t_mapping(t_uint32,t_struct(Checkpoint)2287_storage))": {
        "encoding": "mapping",
        "key": "t_address",
        "label": "mapping(address => mapping(uint32 => struct Quartz.Checkpoint))",
        "numberOfBytes": "32",
        "value": "t_mapping(t_uint32,t_struct(Checkpoint)2287_storage)"
      },
      "t_mapping(t_address,t_uint256)": {
        "encoding": "mapping",
        "key": "t_address",
        "label": "mapping(address => uint256)",
        "numberOfBytes": "32",
        "value": "t_uint256"
      },
      "t_mapping(t_address,t_uint32)": {
        "encoding": "mapping",
        "key": "t_address",
        "label": "mapping(address => uint32)",
        "numberOfBytes": "32",
        "value": "t_uint32"
      },
      "t_mapping(t_uint32,t_struct(Checkpoint)2287_storage)": {
        "encoding": "mapping",
        "key": "t_uint32",
        "label": "mapping(uint32 => struct Quartz.Checkpoint)",
        "numberOfBytes": "32",
        "value": "t_struct(Checkpoint)2287_storage"
      },
      "t_mapping(t_uint64,t_struct(StakeInfo)2282_storage)": {
        "encoding": "mapping",
        "key": "t_uint64",
        "label": "mapping(uint64 => struct Quartz.StakeInfo)",
        "numberOfBytes": "32",
        "value": "t_struct(StakeInfo)2282_storage"
      },
      "t_string_storage": {
        "encoding": "bytes",
        "label": "string",
        "numberOfBytes": "32"
      },
      "t_struct(Checkpoint)2287_storage": {
        "encoding": "inplace",
        "label": "struct Quartz.Checkpoint",
        "members": [
          {
            "astId": 2284,
            "contract": "contracts/Quartz.sol:Quartz",
            "label": "fromBlock",
            "offset": 0,
            "slot": "0",
            "type": "t_uint32"
          },
          {
            "astId": 2286,
            "contract": "contracts/Quartz.sol:Quartz",
            "label": "votes",
            "offset": 0,
            "slot": "1",
            "type": "t_uint256"
          }
        ],
        "numberOfBytes": "64"
      },
      "t_struct(StakeInfo)2282_storage": {
        "encoding": "inplace",
        "label": "struct Quartz.StakeInfo",
        "members": [
          {
            "astId": 2271,
            "contract": "contracts/Quartz.sol:Quartz",
            "label": "owner",
            "offset": 0,
            "slot": "0",
            "type": "t_address"
          },
          {
            "astId": 2273,
            "contract": "contracts/Quartz.sol:Quartz",
            "label": "beneficiary",
            "offset": 0,
            "slot": "1",
            "type": "t_address"
          },
          {
            "astId": 2275,
            "contract": "contracts/Quartz.sol:Quartz",
            "label": "amount",
            "offset": 0,
            "slot": "2",
            "type": "t_uint256"
          },
          {
            "astId": 2277,
            "contract": "contracts/Quartz.sol:Quartz",
            "label": "period",
            "offset": 0,
            "slot": "3",
            "type": "t_uint64"
          },
          {
            "astId": 2279,
            "contract": "contracts/Quartz.sol:Quartz",
            "label": "maturationTimestamp",
            "offset": 8,
            "slot": "3",
            "type": "t_uint64"
          },
          {
            "astId": 2281,
            "contract": "contracts/Quartz.sol:Quartz",
            "label": "active",
            "offset": 16,
            "slot": "3",
            "type": "t_bool"
          }
        ],
        "numberOfBytes": "128"
      },
      "t_uint256": {
        "encoding": "inplace",
        "label": "uint256",
        "numberOfBytes": "32"
      },
      "t_uint32": {
        "encoding": "inplace",
        "label": "uint32",
        "numberOfBytes": "4"
      },
      "t_uint64": {
        "encoding": "inplace",
        "label": "uint64",
        "numberOfBytes": "8"
      },
      "t_uint8": {
        "encoding": "inplace",
        "label": "uint8",
        "numberOfBytes": "1"
      }
    }
  }
}