{
  "address": "0x2E75356410Cf993712CC7F6461e68523887A6419",
  "abi": [
    {
      "inputs": [
        {
          "internalType": "contract IQuartz",
          "name": "_quartz",
          "type": "address"
        },
        {
          "internalType": "uint256",
          "name": "_decay",
          "type": "uint256"
        },
        {
          "internalType": "uint256",
          "name": "_maxRatio",
          "type": "uint256"
        },
        {
          "internalType": "uint256",
          "name": "_weight",
          "type": "uint256"
        },
        {
          "internalType": "uint256",
          "name": "_minThresholdStakePercentage",
          "type": "uint256"
        },
        {
          "internalType": "uint256",
          "name": "_minVotesToPass",
          "type": "uint256"
        }
      ],
      "stateMutability": "nonpayable",
      "type": "constructor"
    },
    {
      "anonymous": false,
      "inputs": [
        {
          "indexed": false,
          "internalType": "uint256",
          "name": "decay",
          "type": "uint256"
        },
        {
          "indexed": false,
          "internalType": "uint256",
          "name": "maxRatio",
          "type": "uint256"
        },
        {
          "indexed": false,
          "internalType": "uint256",
          "name": "weight",
          "type": "uint256"
        },
        {
          "indexed": false,
          "internalType": "uint256",
          "name": "minThresholdStakePercentage",
          "type": "uint256"
        },
        {
          "indexed": false,
          "internalType": "uint256",
          "name": "minVotesToPass",
          "type": "uint256"
        }
      ],
      "name": "ConvictionSettingsChanged",
      "type": "event"
    },
    {
      "anonymous": false,
      "inputs": [
        {
          "indexed": true,
          "internalType": "address",
          "name": "entity",
          "type": "address"
        },
        {
          "indexed": true,
          "internalType": "uint256",
          "name": "id",
          "type": "uint256"
        },
        {
          "indexed": false,
          "internalType": "string",
          "name": "title",
          "type": "string"
        },
        {
          "indexed": false,
          "internalType": "bytes",
          "name": "link",
          "type": "bytes"
        }
      ],
      "name": "ProposalAdded",
      "type": "event"
    },
    {
      "anonymous": false,
      "inputs": [
        {
          "indexed": true,
          "internalType": "uint256",
          "name": "id",
          "type": "uint256"
        }
      ],
      "name": "ProposalCancelled",
      "type": "event"
    },
    {
      "anonymous": false,
      "inputs": [
        {
          "indexed": true,
          "internalType": "uint256",
          "name": "id",
          "type": "uint256"
        },
        {
          "indexed": false,
          "internalType": "uint256",
          "name": "positiveConviction",
          "type": "uint256"
        },
        {
          "indexed": false,
          "internalType": "uint256",
          "name": "negativeConviction",
          "type": "uint256"
        }
      ],
      "name": "ProposalExecuted",
      "type": "event"
    },
    {
      "anonymous": false,
      "inputs": [
        {
          "indexed": true,
          "internalType": "bytes32",
          "name": "role",
          "type": "bytes32"
        },
        {
          "indexed": true,
          "internalType": "bytes32",
          "name": "previousAdminRole",
          "type": "bytes32"
        },
        {
          "indexed": true,
          "internalType": "bytes32",
          "name": "newAdminRole",
          "type": "bytes32"
        }
      ],
      "name": "RoleAdminChanged",
      "type": "event"
    },
    {
      "anonymous": false,
      "inputs": [
        {
          "indexed": true,
          "internalType": "bytes32",
          "name": "role",
          "type": "bytes32"
        },
        {
          "indexed": true,
          "internalType": "address",
          "name": "account",
          "type": "address"
        },
        {
          "indexed": true,
          "internalType": "address",
          "name": "sender",
          "type": "address"
        }
      ],
      "name": "RoleGranted",
      "type": "event"
    },
    {
      "anonymous": false,
      "inputs": [
        {
          "indexed": true,
          "internalType": "bytes32",
          "name": "role",
          "type": "bytes32"
        },
        {
          "indexed": true,
          "internalType": "address",
          "name": "account",
          "type": "address"
        },
        {
          "indexed": true,
          "internalType": "address",
          "name": "sender",
          "type": "address"
        }
      ],
      "name": "RoleRevoked",
      "type": "event"
    },
    {
      "anonymous": false,
      "inputs": [
        {
          "indexed": true,
          "internalType": "address",
          "name": "entity",
          "type": "address"
        },
        {
          "indexed": true,
          "internalType": "uint256",
          "name": "id",
          "type": "uint256"
        },
        {
          "indexed": false,
          "internalType": "uint256",
          "name": "amount",
          "type": "uint256"
        },
        {
          "indexed": false,
          "internalType": "uint256",
          "name": "conviction",
          "type": "uint256"
        },
        {
          "indexed": false,
          "internalType": "bool",
          "name": "support",
          "type": "bool"
        }
      ],
      "name": "VoteCasted",
      "type": "event"
    },
    {
      "anonymous": false,
      "inputs": [
        {
          "indexed": false,
          "internalType": "address",
          "name": "entity",
          "type": "address"
        },
        {
          "indexed": true,
          "internalType": "uint256",
          "name": "id",
          "type": "uint256"
        },
        {
          "indexed": false,
          "internalType": "uint256",
          "name": "amount",
          "type": "uint256"
        },
        {
          "indexed": false,
          "internalType": "uint256",
          "name": "conviction",
          "type": "uint256"
        },
        {
          "indexed": false,
          "internalType": "bool",
          "name": "support",
          "type": "bool"
        }
      ],
      "name": "VotesWithdrawn",
      "type": "event"
    },
    {
      "inputs": [],
      "name": "ABSTAIN_PROPOSAL_ID",
      "outputs": [
        {
          "internalType": "uint256",
          "name": "",
          "type": "uint256"
        }
      ],
      "stateMutability": "view",
      "type": "function"
    },
    {
      "inputs": [],
      "name": "ADMIN_ROLE",
      "outputs": [
        {
          "internalType": "bytes32",
          "name": "",
          "type": "bytes32"
        }
      ],
      "stateMutability": "view",
      "type": "function"
    },
    {
      "inputs": [],
      "name": "CANCEL_PROPOSAL_ROLE",
      "outputs": [
        {
          "internalType": "bytes32",
          "name": "",
          "type": "bytes32"
        }
      ],
      "stateMutability": "view",
      "type": "function"
    },
    {
      "inputs": [],
      "name": "CREATE_PROPOSALS_ROLE",
      "outputs": [
        {
          "internalType": "bytes32",
          "name": "",
          "type": "bytes32"
        }
      ],
      "stateMutability": "view",
      "type": "function"
    },
    {
      "inputs": [],
      "name": "D",
      "outputs": [
        {
          "internalType": "uint256",
          "name": "",
          "type": "uint256"
        }
      ],
      "stateMutability": "view",
      "type": "function"
    },
    {
      "inputs": [],
      "name": "DEFAULT_ADMIN_ROLE",
      "outputs": [
        {
          "internalType": "bytes32",
          "name": "",
          "type": "bytes32"
        }
      ],
      "stateMutability": "view",
      "type": "function"
    },
    {
      "inputs": [],
      "name": "MAX_STAKED_PROPOSALS",
      "outputs": [
        {
          "internalType": "uint64",
          "name": "",
          "type": "uint64"
        }
      ],
      "stateMutability": "view",
      "type": "function"
    },
    {
      "inputs": [],
      "name": "ONE_HUNDRED_PERCENT",
      "outputs": [
        {
          "internalType": "uint256",
          "name": "",
          "type": "uint256"
        }
      ],
      "stateMutability": "view",
      "type": "function"
    },
    {
      "inputs": [],
      "name": "UPDATE_SETTINGS_ROLE",
      "outputs": [
        {
          "internalType": "bytes32",
          "name": "",
          "type": "bytes32"
        }
      ],
      "stateMutability": "view",
      "type": "function"
    },
    {
      "inputs": [
        {
          "internalType": "string",
          "name": "_title",
          "type": "string"
        },
        {
          "internalType": "bytes",
          "name": "_link",
          "type": "bytes"
        }
      ],
      "name": "addProposal",
      "outputs": [],
      "stateMutability": "nonpayable",
      "type": "function"
    },
    {
      "inputs": [
        {
          "internalType": "uint256",
          "name": "_timePassed",
          "type": "uint256"
        },
        {
          "internalType": "uint256",
          "name": "_lastConv",
          "type": "uint256"
        },
        {
          "internalType": "uint256",
          "name": "_oldAmount",
          "type": "uint256"
        }
      ],
      "name": "calculateConviction",
      "outputs": [
        {
          "internalType": "uint256",
          "name": "",
          "type": "uint256"
        }
      ],
      "stateMutability": "view",
      "type": "function"
    },
    {
      "inputs": [],
      "name": "calculateThreshold",
      "outputs": [
        {
          "internalType": "uint256",
          "name": "_threshold",
          "type": "uint256"
        }
      ],
      "stateMutability": "view",
      "type": "function"
    },
    {
      "inputs": [
        {
          "internalType": "uint256",
          "name": "_proposalId",
          "type": "uint256"
        }
      ],
      "name": "cancelProposal",
      "outputs": [],
      "stateMutability": "nonpayable",
      "type": "function"
    },
    {
      "inputs": [
        {
          "internalType": "uint256",
          "name": "_proposalId",
          "type": "uint256"
        },
        {
          "internalType": "bool",
          "name": "_support",
          "type": "bool"
        }
      ],
      "name": "castAllVotes",
      "outputs": [],
      "stateMutability": "nonpayable",
      "type": "function"
    },
    {
      "inputs": [
        {
          "internalType": "uint256",
          "name": "_proposalId",
          "type": "uint256"
        },
        {
          "internalType": "uint256",
          "name": "_amount",
          "type": "uint256"
        },
        {
          "internalType": "bool",
          "name": "_support",
          "type": "bool"
        }
      ],
      "name": "castVotes",
      "outputs": [],
      "stateMutability": "nonpayable",
      "type": "function"
    },
    {
      "inputs": [],
      "name": "decay",
      "outputs": [
        {
          "internalType": "uint256",
          "name": "",
          "type": "uint256"
        }
      ],
      "stateMutability": "view",
      "type": "function"
    },
    {
      "inputs": [
        {
          "internalType": "uint256",
          "name": "_proposalId",
          "type": "uint256"
        }
      ],
      "name": "executeProposal",
      "outputs": [],
      "stateMutability": "nonpayable",
      "type": "function"
    },
    {
      "inputs": [
        {
          "internalType": "uint256",
          "name": "_proposalId",
          "type": "uint256"
        }
      ],
      "name": "getProposal",
      "outputs": [
        {
          "components": [
            {
              "internalType": "uint256",
              "name": "id",
              "type": "uint256"
            },
            {
              "internalType": "uint256",
              "name": "totalVotes",
              "type": "uint256"
            },
            {
              "internalType": "uint256",
              "name": "convictionLast",
              "type": "uint256"
            },
            {
              "internalType": "uint256",
              "name": "blockLast",
              "type": "uint256"
            }
          ],
          "internalType": "struct QuartzGovernor.Vote",
          "name": "positiveVotes",
          "type": "tuple"
        },
        {
          "components": [
            {
              "internalType": "uint256",
              "name": "id",
              "type": "uint256"
            },
            {
              "internalType": "uint256",
              "name": "totalVotes",
              "type": "uint256"
            },
            {
              "internalType": "uint256",
              "name": "convictionLast",
              "type": "uint256"
            },
            {
              "internalType": "uint256",
              "name": "blockLast",
              "type": "uint256"
            }
          ],
          "internalType": "struct QuartzGovernor.Vote",
          "name": "negativeVotes",
          "type": "tuple"
        },
        {
          "internalType": "enum QuartzGovernor.ProposalStatus",
          "name": "proposalStatus",
          "type": "uint8"
        },
        {
          "internalType": "address",
          "name": "submitter",
          "type": "address"
        }
      ],
      "stateMutability": "view",
      "type": "function"
    },
    {
      "inputs": [
        {
          "internalType": "uint256",
          "name": "_proposalId",
          "type": "uint256"
        },
        {
          "internalType": "address",
          "name": "_voter",
          "type": "address"
        }
      ],
      "name": "getProposalUserVotes",
      "outputs": [
        {
          "internalType": "uint256",
          "name": "",
          "type": "uint256"
        },
        {
          "internalType": "uint256",
          "name": "",
          "type": "uint256"
        }
      ],
      "stateMutability": "view",
      "type": "function"
    },
    {
      "inputs": [
        {
          "internalType": "bytes32",
          "name": "role",
          "type": "bytes32"
        }
      ],
      "name": "getRoleAdmin",
      "outputs": [
        {
          "internalType": "bytes32",
          "name": "",
          "type": "bytes32"
        }
      ],
      "stateMutability": "view",
      "type": "function"
    },
    {
      "inputs": [
        {
          "internalType": "bytes32",
          "name": "role",
          "type": "bytes32"
        },
        {
          "internalType": "uint256",
          "name": "index",
          "type": "uint256"
        }
      ],
      "name": "getRoleMember",
      "outputs": [
        {
          "internalType": "address",
          "name": "",
          "type": "address"
        }
      ],
      "stateMutability": "view",
      "type": "function"
    },
    {
      "inputs": [
        {
          "internalType": "bytes32",
          "name": "role",
          "type": "bytes32"
        }
      ],
      "name": "getRoleMemberCount",
      "outputs": [
        {
          "internalType": "uint256",
          "name": "",
          "type": "uint256"
        }
      ],
      "stateMutability": "view",
      "type": "function"
    },
    {
      "inputs": [
        {
          "internalType": "address",
          "name": "_voter",
          "type": "address"
        }
      ],
      "name": "getTotalUserVotes",
      "outputs": [
        {
          "internalType": "uint256",
          "name": "",
          "type": "uint256"
        }
      ],
      "stateMutability": "view",
      "type": "function"
    },
    {
      "inputs": [
        {
          "internalType": "address",
          "name": "_voter",
          "type": "address"
        }
      ],
      "name": "getVoterCastedProposals",
      "outputs": [
        {
          "internalType": "uint256[]",
          "name": "",
          "type": "uint256[]"
        }
      ],
      "stateMutability": "view",
      "type": "function"
    },
    {
      "inputs": [
        {
          "internalType": "bytes32",
          "name": "role",
          "type": "bytes32"
        },
        {
          "internalType": "address",
          "name": "account",
          "type": "address"
        }
      ],
      "name": "grantRole",
      "outputs": [],
      "stateMutability": "nonpayable",
      "type": "function"
    },
    {
      "inputs": [
        {
          "internalType": "bytes32",
          "name": "role",
          "type": "bytes32"
        },
        {
          "internalType": "address",
          "name": "account",
          "type": "address"
        }
      ],
      "name": "hasRole",
      "outputs": [
        {
          "internalType": "bool",
          "name": "",
          "type": "bool"
        }
      ],
      "stateMutability": "view",
      "type": "function"
    },
    {
      "inputs": [],
      "name": "lastVoteId",
      "outputs": [
        {
          "internalType": "uint256",
          "name": "",
          "type": "uint256"
        }
      ],
      "stateMutability": "view",
      "type": "function"
    },
    {
      "inputs": [],
      "name": "maxRatio",
      "outputs": [
        {
          "internalType": "uint256",
          "name": "",
          "type": "uint256"
        }
      ],
      "stateMutability": "view",
      "type": "function"
    },
    {
      "inputs": [],
      "name": "minThresholdStakePercentage",
      "outputs": [
        {
          "internalType": "uint256",
          "name": "",
          "type": "uint256"
        }
      ],
      "stateMutability": "view",
      "type": "function"
    },
    {
      "inputs": [],
      "name": "minVotesToPass",
      "outputs": [
        {
          "internalType": "uint256",
          "name": "",
          "type": "uint256"
        }
      ],
      "stateMutability": "view",
      "type": "function"
    },
    {
      "inputs": [],
      "name": "proposalCounter",
      "outputs": [
        {
          "internalType": "uint256",
          "name": "",
          "type": "uint256"
        }
      ],
      "stateMutability": "view",
      "type": "function"
    },
    {
      "inputs": [],
      "name": "quartz",
      "outputs": [
        {
          "internalType": "contract IQuartz",
          "name": "",
          "type": "address"
        }
      ],
      "stateMutability": "view",
      "type": "function"
    },
    {
      "inputs": [
        {
          "internalType": "bytes32",
          "name": "role",
          "type": "bytes32"
        },
        {
          "internalType": "address",
          "name": "account",
          "type": "address"
        }
      ],
      "name": "renounceRole",
      "outputs": [],
      "stateMutability": "nonpayable",
      "type": "function"
    },
    {
      "inputs": [
        {
          "internalType": "bytes32",
          "name": "role",
          "type": "bytes32"
        },
        {
          "internalType": "address",
          "name": "account",
          "type": "address"
        }
      ],
      "name": "revokeRole",
      "outputs": [],
      "stateMutability": "nonpayable",
      "type": "function"
    },
    {
      "inputs": [
        {
          "internalType": "uint256",
          "name": "_decay",
          "type": "uint256"
        },
        {
          "internalType": "uint256",
          "name": "_maxRatio",
          "type": "uint256"
        },
        {
          "internalType": "uint256",
          "name": "_weight",
          "type": "uint256"
        },
        {
          "internalType": "uint256",
          "name": "_minThresholdStakePercentage",
          "type": "uint256"
        },
        {
          "internalType": "uint256",
          "name": "_minVotesToPass",
          "type": "uint256"
        }
      ],
      "name": "setConvictionCalculationSettings",
      "outputs": [],
      "stateMutability": "nonpayable",
      "type": "function"
    },
    {
      "inputs": [],
      "name": "totalVotes",
      "outputs": [
        {
          "internalType": "uint256",
          "name": "",
          "type": "uint256"
        }
      ],
      "stateMutability": "view",
      "type": "function"
    },
    {
      "inputs": [
        {
          "internalType": "uint256",
          "name": "",
          "type": "uint256"
        },
        {
          "internalType": "address",
          "name": "",
          "type": "address"
        }
      ],
      "name": "userVotes",
      "outputs": [
        {
          "internalType": "uint256",
          "name": "",
          "type": "uint256"
        }
      ],
      "stateMutability": "view",
      "type": "function"
    },
    {
      "inputs": [],
      "name": "weight",
      "outputs": [
        {
          "internalType": "uint256",
          "name": "",
          "type": "uint256"
        }
      ],
      "stateMutability": "view",
      "type": "function"
    },
    {
      "inputs": [],
      "name": "withdrawAllInactiveVotes",
      "outputs": [
        {
          "internalType": "uint256",
          "name": "withdrawnAmount",
          "type": "uint256"
        }
      ],
      "stateMutability": "nonpayable",
      "type": "function"
    },
    {
      "inputs": [
        {
          "internalType": "uint256",
          "name": "_proposalId",
          "type": "uint256"
        },
        {
          "internalType": "bool",
          "name": "_support",
          "type": "bool"
        }
      ],
      "name": "withdrawAllVotesFromProposal",
      "outputs": [],
      "stateMutability": "nonpayable",
      "type": "function"
    },
    {
      "inputs": [
        {
          "internalType": "address",
          "name": "_from",
          "type": "address"
        },
        {
          "internalType": "uint256",
          "name": "_amount",
          "type": "uint256"
        },
        {
          "internalType": "bool",
          "name": "force",
          "type": "bool"
        }
      ],
      "name": "withdrawRequiredVotes",
      "outputs": [],
      "stateMutability": "nonpayable",
      "type": "function"
    },
    {
      "inputs": [
        {
          "internalType": "uint256",
          "name": "_proposalId",
          "type": "uint256"
        },
        {
          "internalType": "uint256",
          "name": "_amount",
          "type": "uint256"
        },
        {
          "internalType": "bool",
          "name": "_support",
          "type": "bool"
        }
      ],
      "name": "withdrawVotes",
      "outputs": [],
      "stateMutability": "nonpayable",
      "type": "function"
    }
  ],
  "transactionHash": "0x295e46420dad91a237e09e85e620d678af58e0f1bc1958e08880ba06c0053162",
  "args": [
    "0x3d9907510C20D760FbD41A91C688900186266F56",
    9999799,
    1000000,
    2500,
    "200000000000000000",
    "100000000000000000000"
  ],
  "solcInputHash": "282f8fd6f5ffb8f4133bc8bf475d6b31",
  "bytecode": "0x60a06040523480156200001157600080fd5b5060405162003680380380620036808339810160408190526200003491620005de565b6200006f7f9d4f140430c9045e12b5a104aa9e641c09b980a26ab8e12a32a2f3d155229ae36000805160206200366083398151915262000428565b620000aa7fbf05b9322505d747ab5880dfb677dc4864381e9fc3a25ccfa184a3a53d02f4b26000805160206200366083398151915262000428565b620000e57f3e317d8f3de745777f176274dda437b0b9bbbe0704f48e9be1821136c177b9336000805160206200366083398151915262000428565b6200010060008051602062003660833981519152336200047a565b606086901b6001600160601b0319166080526200012b6001806200048a602090811b620015ea17901c565b60085560038590556004849055600583905560068290556040805160608101909152602480825282151591906200363c6020830139906200018a5760405162461bcd60e51b81526004016200018191906200063d565b60405180910390fd5b5060078190556200019a620005b6565b604051806080016040528060018152602001600081526020016000815260200160008152509050620001cb620005b6565b6040518060800160405280600281526020016000815260200160008152602001600081525090506040518060800160405280838152602001828152602001600160028111156200021757fe5b815260006020918201819052600190819052600a8252825180517fbbc70db1b6c7afd11e79c0fb0051300458f1a3acb8ee9789d9b6b26c61ad9bc7908155818401517fbbc70db1b6c7afd11e79c0fb0051300458f1a3acb8ee9789d9b6b26c61ad9bc8556040828101517fbbc70db1b6c7afd11e79c0fb0051300458f1a3acb8ee9789d9b6b26c61ad9bc9556060928301517fbbc70db1b6c7afd11e79c0fb0051300458f1a3acb8ee9789d9b6b26c61ad9bca558585015180517fbbc70db1b6c7afd11e79c0fb0051300458f1a3acb8ee9789d9b6b26c61ad9bcb55948501517fbbc70db1b6c7afd11e79c0fb0051300458f1a3acb8ee9789d9b6b26c61ad9bcc55848101517fbbc70db1b6c7afd11e79c0fb0051300458f1a3acb8ee9789d9b6b26c61ad9bcd5593909101517fbbc70db1b6c7afd11e79c0fb0051300458f1a3acb8ee9789d9b6b26c61ad9bce55918301517fbbc70db1b6c7afd11e79c0fb0051300458f1a3acb8ee9789d9b6b26c61ad9bcf80549192909160ff191690836002811115620003a357fe5b021790555060609190910151600890910180546001600160a01b0390921661010002610100600160a81b0319909216919091179055600280556040516001906000907f1ae6f721faa65aa5050175f30956a86dac475b9493b7f5719fd4ecee9beadec7906200041290620006ca565b60405180910390a3505050505050505062000703565b600082815260208190526040808220600201549051839285917fbd79b86ffe0ab8e8776151514217cd7cacd52c909f66475c3af44e129f0b00ff9190a460009182526020829052604090912060020155565b620004868282620004bb565b5050565b600082820183811015620004b25760405162461bcd60e51b8152600401620001819062000693565b90505b92915050565b600082815260208181526040909120620004e09183906200160f62000534821b17901c565b156200048657620004f06200054b565b6001600160a01b0316816001600160a01b0316837f2f8788117e7eff1d82e926ec794901d17c78024a50270940304540a733656f0d60405160405180910390a45050565b6000620004b2836001600160a01b0384166200054f565b3390565b60006200055d83836200059e565b6200059557508154600181810184556000848152602080822090930184905584548482528286019093526040902091909155620004b5565b506000620004b5565b60009081526001919091016020526040902054151590565b6040518060800160405280600081526020016000815260200160008152602001600081525090565b60008060008060008060c08789031215620005f7578182fd5b86516001600160a01b03811681146200060e578283fd5b6020880151604089015160608a015160808b015160a0909b0151939c929b509099909850965090945092505050565b6000602080835283518082850152825b818110156200066b578581018301518582016040015282016200064d565b818111156200067d5783604083870101525b50601f01601f1916929092016040019392505050565b6020808252601b908201527f536166654d6174683a206164646974696f6e206f766572666c6f770000000000604082015260600190565b60408082526010908201526f10589cdd185a5b881c1c9bdc1bdcd85b60821b606082015260806020820181905260009082015260a00190565b60805160601c612efd6200073f600039806107555280610c355280610ec95280610fe4528061171a52806119ed5280611def5250612efd6000f3fe608060405234801561001057600080fd5b506004361061025e5760003560e01c80639010d07c11610146578063c7f758a8116100c3578063dd0081c711610087578063dd0081c7146104b3578063e085f498146104bb578063e0a8f6f5146104ce578063e0f7a175146104e1578063eeabf67e146104f4578063fe5b3e3b146104fc5761025e565b8063c7f758a81461044f578063ca15c87314610472578063cba7f62314610485578063d547741f14610498578063db2d878c146104ab5761025e565b8063a217fddf1161010a578063a217fddf14610411578063a2216c6714610419578063a3a3d20d1461042c578063c0d22e941461043f578063c1f72c84146104475761025e565b80639010d07c146103ae57806391d14854146103ce57806397a33a06146103ee578063984dfead14610401578063a1aab33f146104095761025e565b8063346db8cb116101df57806354fac919116101a357806354fac9191461035b57806375b238fc1461036357806376365af71461036b5780637dc49c2b14610373578063865a7607146103865780638af07b10146103a65761025e565b8063346db8cb146103055780633482eef11461031857806336568abe1461032b578063406244d81461033e5780634f629fbb146103535761025e565b80631522eb43116102265780631522eb43146102ae5780631bc28ea0146102b6578063248a9ca3146102be5780632f2ff15d146102d157806333132a50146102e45761025e565b80630c0512e9146102635780630d15fd77146102815780630d61b519146102895780630eb3813a1461029e5780630f529ba2146102a6575b600080fd5b61026b61050f565b6040516102789190612a84565b60405180910390f35b61026b610515565b61029c6102973660046127e0565b61051b565b005b61026b610750565b61026b6108f5565b61026b6108fc565b61026b610901565b61026b6102cc3660046127e0565b610907565b61029c6102df3660046127f8565b61091f565b6102f76102f23660046127f8565b610967565b604051610278929190612de2565b61026b61031336600461290a565b6109b6565b61029c6103263660046128df565b610a37565b61029c6103393660046127f8565b610a48565b610346610a8a565b6040516102789190612e2b565b61026b610a8f565b61026b610ab3565b61026b610ab9565b61026b610add565b61029c6103813660046128df565b610ae3565b61039961039436600461278b565b610b66565b6040516102789190612a35565b61026b610bd2565b6103c16103bc366004612823565b610bf6565b60405161027891906129e0565b6103e16103dc3660046127f8565b610c17565b6040516102789190612a79565b61029c6103fc3660046128bd565b610c2f565b61026b610cd6565b61026b610cdc565b61026b610ce2565b61029c6104273660046128bd565b610ce7565b61029c61043a366004612935565b610db9565b6103c1610ec7565b61026b610eeb565b61046261045d3660046127e0565b610efd565b6040516102789493929190612d9a565b61026b6104803660046127e0565b610f9d565b61029c6104933660046127a5565b610fb4565b61029c6104a63660046127f8565b611101565b61026b61113b565b61026b611141565b61029c6104c9366004612844565b61114d565b61029c6104dc3660046127e0565b611391565b61026b6104ef36600461278b565b61158e565b61026b6115a9565b61026b61050a3660046127f8565b6115cd565b60085481565b60095481565b80600181148061054957506000818152600a602052604090206008015461010090046001600160a01b031615155b6040518060400160405280601a8152602001600080516020612e41833981519152815250906105945760405162461bcd60e51b815260040161058b9190612a8d565b60405180910390fd5b506000600a600084815260200190815260200160002090506001831415604051806060016040528060228152602001612e8560229139906105e85760405162461bcd60e51b815260040161058b9190612a8d565b506001600882015460ff1660028111156105fe57fe5b146040518060400160405280601681526020017551475f50524f504f53414c5f4e4f545f41435449564560501b8152509061064c5760405162461bcd60e51b815260040161058b9190612a8d565b50600181015481906004820190610664908390611624565b610672818260010154611624565b806002015482600201541180156106a2575061068c610750565b6002808301549084015461069f9161166f565b10155b6040518060400160405280601a81526020017f51475f494e53554646494349454e545f434f4e56494354494f4e000000000000815250906106f65760405162461bcd60e51b815260040161058b9190612a8d565b5060088301805460ff19166002908117909155830154600684015460405187927f3842d9e8746c3c1b0c5e717a88df9c9ae97f2f8c0e01e42dce160aafdb3840e99261074192612de2565b60405180910390a25050505050565b6000807f00000000000000000000000000000000000000000000000000000000000000006001600160a01b031663817b1cd26040518163ffffffff1660e01b815260040160206040518083038186803b1580156107ac57600080fd5b505afa1580156107c0573d6000803e3d6000fd5b505050506040513d601f19601f820116820180604052508101906107e491906128a5565b6007549091506107f79062989680611697565b6004546108049083611697565b116040518060400160405280601881526020017f51475f414d4f554e545f4f5645525f4d41585f524154494f0000000000000000815250906108595760405162461bcd60e51b815260040161058b9190612a8d565b5060075460009061088a906108719060401b846116d1565b6004546108849060401b629896806116d1565b9061166f565b905060406108ec610899611703565b6108e66108b46003546298968061166f90919063ffffffff16565b6108e0629896806108e660406108ca8a80611697565b600554911c906108e09060801b629896806116d1565b906116d1565b90611697565b901c9250505090565b6298968081565b600181565b60025481565b6000818152602081905260409020600201545b919050565b60008281526020819052604090206002015461093d906103dc6117c4565b6109595760405162461bcd60e51b815260040161058b90612b10565b61096382826117c8565b5050565b6000918252600a602090815260408084208054855260018084528286206001600160a01b0395909516808752948452828620546004909201548652835281852093855292909152909120549091565b600354600090849082906109da906109d49060801b629896806116d1565b83611831565b90506080610a2b6001607f1b610a25610a1b60035462989680036108e0610a0e88600160801b61166f90919063ffffffff16565b6108e68c62989680611697565b610a25868b611697565b906115ea565b901c9695505050505050565b610a438383338461189f565b505050565b610a506117c4565b6001600160a01b0316816001600160a01b031614610a805760405162461bcd60e51b815260040161058b90612d4b565b6109638282611c82565b600a81565b7f9d4f140430c9045e12b5a104aa9e641c09b980a26ab8e12a32a2f3d155229ae381565b60035481565b7fa49807205ce4d355092ef5a8a18f56e8913cf4a201fbe287825b095693c2177581565b60045481565b826001811480610b1157506000818152600a602052604090206008015461010090046001600160a01b031615155b6040518060400160405280601a8152602001600080516020612e4183398151915281525090610b535760405162461bcd60e51b815260040161058b9190612a8d565b50610b6084843385611ceb565b50505050565b6001600160a01b0381166000908152600c6020908152604091829020805483518184028101840190945280845260609392830182828015610bc657602002820191906000526020600020905b815481526020019060010190808311610bb2575b50505050509050919050565b7f3e317d8f3de745777f176274dda437b0b9bbbe0704f48e9be1821136c177b93381565b6000828152602081905260408120610c0e90836120d6565b90505b92915050565b6000828152602081905260408120610c0e90836120e2565b610963827f00000000000000000000000000000000000000000000000000000000000000006001600160a01b031663b4b5ea57336040518263ffffffff1660e01b8152600401610c7f91906129e0565b60206040518083038186803b158015610c9757600080fd5b505afa158015610cab573d6000803e3d6000fd5b505050506040513d601f19601f82011682018060405250810190610ccf91906128a5565b338461189f565b60075481565b60055481565b600081565b816001811480610d1557506000818152600a602052604090206008015461010090046001600160a01b031615155b6040518060400160405280601a8152602001600080516020612e4183398151915281525090610d575760405162461bcd60e51b815260040161058b9190612a8d565b50610a438383610d8d576000858152600a6020908152604080832060040154835260018252808320338452909152902054610db2565b6000858152600a60209081526040808320548352600182528083203384529091529020545b3385611ceb565b7f9d4f140430c9045e12b5a104aa9e641c09b980a26ab8e12a32a2f3d155229ae3610de48133610c17565b6040518060400160405280600e81526020016d1451d7d055551217d1905253115160921b81525090610e295760405162461bcd60e51b815260040161058b9190612a8d565b506003869055600485905560058490556006839055604080516060810190915260248082528315159190612e61602083013990610e795760405162461bcd60e51b815260040161058b9190612a8d565b5060078290556040517fcb996c649d5c95396ab560168433227e404018962201abf9c3ef6fae6665d6c090610eb79088908890889088908890612e08565b60405180910390a1505050505050565b7f000000000000000000000000000000000000000000000000000000000000000081565b6000610ef86000336120f7565b905090565b610f056126c2565b610f0d6126c2565b50506000908152600a602090815260409182902060088101548351608080820186528354825260018401548286015260028401548287015260038401546060808401919091528651918201875260048501548252600585015495820195909552600684015495810195909552600790920154928401929092529260ff82169161010090046001600160a01b031690565b6000818152602081905260408120610c1190612270565b60408051808201909152600e81526d28a3afa7a7262cafa8aaa0a92a2d60911b6020820152336001600160a01b037f000000000000000000000000000000000000000000000000000000000000000016146110225760405162461bcd60e51b815260040161058b9190612a8d565b50600061102f83856120f7565b905082811015610b605760408051808201909152601c81527f51475f4e4f545f454e4f5547485f494e4143544956455f564f5445530000000060208201528261108b5760405162461bcd60e51b815260040161058b9190612a8d565b5060006110a161109b858461166f565b8661227b565b9050836110ae83836115ea565b10156040518060400160405280601281526020017151475f4e4f5f454e4f5547485f564f54455360701b815250906110f95760405162461bcd60e51b815260040161058b9190612a8d565b505050505050565b60008281526020819052604090206002015461111f906103dc6117c4565b610a805760405162461bcd60e51b815260040161058b90612c4c565b60065481565b670de0b6b3a764000081565b7fbf05b9322505d747ab5880dfb677dc4864381e9fc3a25ccfa184a3a53d02f4b26111788133610c17565b6040518060400160405280600e81526020016d1451d7d055551217d1905253115160921b815250906111bd5760405162461bcd60e51b815260040161058b9190612a8d565b506111c66126c2565b60405180608001604052806111e760016002546115ea90919063ffffffff16565b81526020016000815260200160008152602001600081525090506112096126c2565b6040518060800160405280611229600280546115ea90919063ffffffff16565b815260200160008152602001600081526020016000815250905060405180608001604052808381526020018281526020016001600281111561126757fe5b815233602091820152600880546000908152600a8352604090819020845180518255808501516001808401919091558184015160028085019190915560609283015160038501558787015180516004860155968701516005850155868501516006850155959091015160078301559185015192810180549194909260ff19909216919084908111156112f557fe5b021790555060609190910151600890910180546001600160a01b0390921661010002610100600160a81b031990921691909117905560028054611337916115ea565b60025560085460405133907f1ae6f721faa65aa5050175f30956a86dac475b9493b7f5719fd4ecee9beadec7906113719089908990612aa0565b60405180910390a36008546113879060016115ea565b6008555050505050565b8060018114806113bf57506000818152600a602052604090206008015461010090046001600160a01b031615155b6040518060400160405280601a8152602001600080516020612e41833981519152815250906114015760405162461bcd60e51b815260040161058b9190612a8d565b506000828152600a602052604081209061143b7f3e317d8f3de745777f176274dda437b0b9bbbe0704f48e9be1821136c177b93333610c17565b600883015490915061010090046001600160a01b031633148061145b5750805b6040518060400160405280601781526020017f51475f53454e4445525f43414e4e4f545f43414e43454c000000000000000000815250906114af5760405162461bcd60e51b815260040161058b9190612a8d565b506001841415604051806060016040528060218152602001612ea760219139906114ec5760405162461bcd60e51b815260040161058b9190612a8d565b506001600883015460ff16600281111561150257fe5b146040518060400160405280601681526020017551475f50524f504f53414c5f4e4f545f41435449564560501b815250906115505760405162461bcd60e51b815260040161058b9190612a8d565b5060088201805460ff1916905560405184907f416e669c63d9a3a5e36ee7cc7e2104b8db28ccd286aa18966e98fa230c73b08c90600090a250505050565b6001600160a01b03166000908152600b602052604090205490565b7fbf05b9322505d747ab5880dfb677dc4864381e9fc3a25ccfa184a3a53d02f4b281565b600160209081526000928352604080842090915290825290205481565b600082820183811015610c0e5760405162461bcd60e51b815260040161058b90612b5f565b6000610c0e836001600160a01b0384166123fa565b6003820154439081101561163457fe5b80836003015414156116465750610963565b600061165d846003015483038560020154856109b6565b60038501929092555060028301555050565b6000828211156116915760405162461bcd60e51b815260040161058b90612bde565b50900390565b6000826116a657506000610c11565b828202828482816116b357fe5b0414610c0e5760405162461bcd60e51b815260040161058b90612cd3565b60008082116116f25760405162461bcd60e51b815260040161058b90612c15565b8183816116fb57fe5b049392505050565b6000806117a9670de0b6b3a76400006108e06006547f00000000000000000000000000000000000000000000000000000000000000006001600160a01b031663817b1cd26040518163ffffffff1660e01b815260040160206040518083038186803b15801561177157600080fd5b505afa158015611785573d6000803e3d6000fd5b505050506040513d601f19601f820116820180604052508101906108e691906128a5565b905080600954106117bc576009546117be565b805b91505090565b3390565b60008281526020819052604090206117e0908261160f565b15610963576117ed6117c4565b6001600160a01b0316816001600160a01b0316837f2f8788117e7eff1d82e926ec794901d17c78024a50270940304540a733656f0d60405160405180910390a45050565b6000600160801b83106118565760405162461bcd60e51b815260040161058b90612c9c565b50600160801b82825b80156118975760018116611881576118778283612444565b915060011c611892565b61188b8383612444565b9250600019015b61185f565b505092915050565b8360018114806118cd57506000818152600a602052604090206008015461010090046001600160a01b031615155b6040518060400160405280601a8152602001600080516020612e418339815191528152509061190f5760405162461bcd60e51b815260040161058b9190612a8d565b506000858152600a60209081526040918290208251808401909352601983527851475f414d4f554e545f43414e5f4e4f545f42455f5a45524f60381b9183019190915290856119715760405162461bcd60e51b815260040161058b9190612a8d565b506001600882015460ff16600281111561198757fe5b146040518060400160405280601681526020017551475f50524f504f53414c5f4e4f545f41435449564560501b815250906119d55760405162461bcd60e51b815260040161058b9190612a8d565b506040516370cbf7df60e11b81526001600160a01b037f0000000000000000000000000000000000000000000000000000000000000000169063e197efbe90611a2490879089906004016129f4565b600060405180830381600087803b158015611a3e57600080fd5b505af1158015611a52573d6000803e3d6000fd5b5050505060008315611ae257600482015460009081526001602090815260408083206001600160a01b0389168452825291829020548251808401909352601983527f51475f414c52454144595f4e454741544956455f564f544544000000000000009183019190915215611ad95760405162461bcd60e51b815260040161058b9190612a8d565b50819050611b61565b815460009081526001602090815260408083206001600160a01b0389168452825291829020548251808401909352601983527f51475f414c52454144595f504f5349544956455f564f544544000000000000009183019190915215611b5a5760405162461bcd60e51b815260040161058b9190612a8d565b5050600481015b6001810154611b7081886115ea565b60018084019190915582546000908152602091825260408082206001600160a01b038a1683529092522054611ba590886115ea565b825460009081526001602090815260408083206001600160a01b038b168452825280832093909355600b90522054611bdd90886115ea565b6001600160a01b0387166000908152600b6020526040902055600954611c0390886115ea565b6009556003820154611c1a57436003830155611c24565b611c248282611624565b611c2e88876124aa565b87866001600160a01b03167f28cea0d56dedda49e7c76d1b09c6b93cd6ba2a192505566e997f3ea3bfbb7bd089856002015489604051611c7093929190612df0565b60405180910390a35050505050505050565b6000828152602081905260409020611c9a9082612570565b1561096357611ca76117c4565b6001600160a01b0316816001600160a01b0316837ff6391f5c32d9c69d2a47ea670b442974b53935d1edc7fd64eb21e047a839171b60405160405180910390a45050565b6000848152600a602052604081209082611d085781600401611d0a565b815b805460009081526001602090815260408083206001600160a01b0389168452825291829020548251808401909352601b83527f51475f57495448445241575f4d4f52455f5448414e5f564f54454400000000009183019190915291925090861115611d885760405162461bcd60e51b815260040161058b9190612a8d565b5060408051808201909152601981527851475f414d4f554e545f43414e5f4e4f545f42455f5a45524f60381b602082015285611dd75760405162461bcd60e51b815260040161058b9190612a8d565b50604051633e5df78760e21b81526001600160a01b037f0000000000000000000000000000000000000000000000000000000000000000169063f977de1c90611e2690879089906004016129f4565b600060405180830381600087803b158015611e4057600080fd5b505af1158015611e54573d6000803e3d6000fd5b505050506001810154611e67818761166f565b60018084019190915582546000908152602091825260408082206001600160a01b03891683529092522054611e9c908761166f565b825460009081526001602090815260408083206001600160a01b038a168452825280832093909355600b90522054611ed4908761166f565b6001600160a01b0386166000908152600b6020526040902055600954611efa908761166f565b600955815460009081526001602090815260408083206001600160a01b0389168452909152902054612066576001600160a01b0385166000908152600d602090815260408083208a8452909152812054611f5590600161166f565b6001600160a01b0387166000818152600d602090815260408083208d84528252808320839055928252600c90529081205491925090611f9590600161166f565b6001600160a01b0388166000908152600c602052604081208054929350909183908110611fbe57fe5b9060005260206000200154905080600c60008a6001600160a01b03166001600160a01b031681526020019081526020016000208481548110611ffc57fe5b6000918252602090912001556120138360016115ea565b6001600160a01b0389166000818152600d60209081526040808320868452825280832094909455918152600c9091522080548061204c57fe5b600190038181906000526020600020016000905590555050505b6001600884015460ff16600281111561207b57fe5b141561208b5761208b8282611624565b867f7af560cf29cc23f7d4aeaca3db43c5bec8f9639a3be3dc4ac9fd388b6131678986888560020154886040516120c59493929190612a0d565b60405180910390a250505050505050565b6000610c0e8383612585565b6000610c0e836001600160a01b0384166125ca565b6001600160a01b0381166000908152600c602090815260408083208054825181850281018501909352808352849360609392919083018282801561215a57602002820191906000526020600020905b815481526020019060010190808311612146575b505050505090505b805182108015612179575084158061217957508483105b1561189757600081838151811061218c57fe5b6020908102919091018101516000818152600a90925260409091209091506001600882015460ff1660028111156121bf57fe5b1461226357600481015460009081526001602081815260408084206001600160a01b038b16808652908352818520548654865293835281852090855290915282205461220a916115ea565b9050801561226157815460009081526001602090815260408083206001600160a01b038b16845290915290205461225490849083908a9061224c57600061224f565b60015b611ceb565b61225e86826115ea565b95505b505b6001840193505050612162565b6000610c11826125e2565b6001600160a01b0381166000908152600c60209081526040808320805482518185028101850190935280835284936060939291908301828280156122de57602002820191906000526020600020905b8154815260200190600101908083116122ca575b505050505090505b8051821080156122f557508483105b1561189757600081838151811061230857fe5b6020908102919091018101516000818152600a90925260409091209091506001600882015460ff16600281111561233b57fe5b14156123ed57600061239c612350898861166f565b600484015460009081526001602081815260408084206001600160a01b038e16808652908352818520548954865293835281852090855290915290912054612397916115ea565b6125e6565b905080156123eb57815460009081526001602090815260408083206001600160a01b038b1684529091529020546123de90849083908a9061224c57600061224f565b6123e886826115ea565b95505b505b60018401935050506122e6565b600061240683836125ca565b61243c57508154600181810184556000848152602080822090930184905584548482528286019093526040902091909155610c11565b506000610c11565b6000600160801b83111561246a5760405162461bcd60e51b815260040161058b90612b96565b600160801b821061248d5760405162461bcd60e51b815260040161058b90612d14565b60806124a16001607f1b610a258686611697565b901c9392505050565b6001600160a01b0381166000908152600c60209081526040808320600d835281842086855290925290912054610a4357805460408051808201909152601881527f51475f4d41585f50524f504f53414c535f524541434845440000000000000000602082015290600a116125315760405162461bcd60e51b815260040161058b9190612a8d565b5080546001810182556000828152602080822090920185905582546001600160a01b0385168252600d8352604080832087845290935291902055505050565b6000610c0e836001600160a01b0384166125fc565b815460009082106125a85760405162461bcd60e51b815260040161058b90612ace565b8260000182815481106125b757fe5b9060005260206000200154905092915050565b60009081526001919091016020526040902054151590565b5490565b60008183106125f55781610c0e565b5090919050565b600081815260018301602052604081205480156126b8578354600019808301919081019060009087908390811061262f57fe5b906000526020600020015490508087600001848154811061264c57fe5b60009182526020808320909101929092558281526001898101909252604090209084019055865487908061267c57fe5b60019003818190600052602060002001600090559055866001016000878152602001908152602001600020600090556001945050505050610c11565b6000915050610c11565b6040518060800160405280600081526020016000815260200160008152602001600081525090565b80356001600160a01b038116811461091a57600080fd5b8035801515811461091a57600080fd5b600082601f830112612721578081fd5b813567ffffffffffffffff8082111561273657fe5b604051601f8301601f19168101602001828111828210171561275457fe5b60405282815292508284830160200186101561276f57600080fd5b8260208601602083013760006020848301015250505092915050565b60006020828403121561279c578081fd5b610c0e826126ea565b6000806000606084860312156127b9578182fd5b6127c2846126ea565b9250602084013591506127d760408501612701565b90509250925092565b6000602082840312156127f1578081fd5b5035919050565b6000806040838503121561280a578182fd5b8235915061281a602084016126ea565b90509250929050565b60008060408385031215612835578182fd5b50508035926020909101359150565b60008060408385031215612856578182fd5b823567ffffffffffffffff8082111561286d578384fd5b61287986838701612711565b9350602085013591508082111561288e578283fd5b5061289b85828601612711565b9150509250929050565b6000602082840312156128b6578081fd5b5051919050565b600080604083850312156128cf578182fd5b8235915061281a60208401612701565b6000806000606084860312156128f3578283fd5b83359250602084013591506127d760408501612701565b60008060006060848603121561291e578283fd5b505081359360208301359350604090920135919050565b600080600080600060a0868803121561294c578081fd5b505083359560208501359550604085013594606081013594506080013592509050565b60008151808452815b8181101561299457602081850181015186830182015201612978565b818111156129a55782602083870101525b50601f01601f19169290920160200192915050565b805182526020810151602083015260408101516040830152606081015160608301525050565b6001600160a01b0391909116815260200190565b6001600160a01b03929092168252602082015260400190565b6001600160a01b03949094168452602084019290925260408301521515606082015260800190565b6020808252825182820181905260009190848201906040850190845b81811015612a6d57835183529284019291840191600101612a51565b50909695505050505050565b901515815260200190565b90815260200190565b600060208252610c0e602083018461296f565b600060408252612ab3604083018561296f565b8281036020840152612ac5818561296f565b95945050505050565b60208082526022908201527f456e756d657261626c655365743a20696e646578206f7574206f6620626f756e604082015261647360f01b606082015260800190565b6020808252602f908201527f416363657373436f6e74726f6c3a2073656e646572206d75737420626520616e60408201526e0818591b5a5b881d1bc819dc985b9d608a1b606082015260800190565b6020808252601b908201527f536166654d6174683a206164646974696f6e206f766572666c6f770000000000604082015260600190565b60208082526028908201527f5f612073686f756c64206265206c657373207468616e206f7220657175616c206040820152670e8de4064bc6264760c31b606082015260800190565b6020808252601e908201527f536166654d6174683a207375627472616374696f6e206f766572666c6f770000604082015260600190565b6020808252601a908201527f536166654d6174683a206469766973696f6e206279207a65726f000000000000604082015260600190565b60208082526030908201527f416363657373436f6e74726f6c3a2073656e646572206d75737420626520616e60408201526f2061646d696e20746f207265766f6b6560801b606082015260800190565b6020808252601c908201527f5f612073686f756c64206265206c657373207468616e20325e31323800000000604082015260600190565b60208082526021908201527f536166654d6174683a206d756c7469706c69636174696f6e206f766572666c6f6040820152607760f81b606082015260800190565b6020808252601c908201527f5f622073686f756c64206265206c657373207468616e20325e31323800000000604082015260600190565b6020808252602f908201527f416363657373436f6e74726f6c3a2063616e206f6e6c792072656e6f756e636560408201526e103937b632b9903337b91039b2b63360891b606082015260800190565b6101408101612da982876129ba565b612db660808301866129ba565b60038410612dc057fe5b6101008201939093526001600160a01b03919091166101209091015292915050565b918252602082015260400190565b92835260208301919091521515604082015260600190565b948552602085019390935260408401919091526060830152608082015260a00190565b67ffffffffffffffff9190911681526020019056fe51475f50524f504f53414c5f444f45535f4e4f545f455849535400000000000051475f4d494e5f564f5445535f544f5f504153535f43414e5f4e4f545f42455f5a45524f51475f43414e4e4f545f455845435554455f4142535441494e5f50524f504f53414c51475f43414e4e4f545f43414e43454c5f4142535441494e5f50524f504f53414ca26469706673582212209f24e20b529c64c2eecd18c54a39e1cdf37fab484d345e398fe4cc3bcc4f7c7b64736f6c6343000703003351475f4d494e5f564f5445535f544f5f504153535f43414e5f4e4f545f42455f5a45524fa49807205ce4d355092ef5a8a18f56e8913cf4a201fbe287825b095693c21775",
  "devdoc": {
    "kind": "dev",
    "methods": {
      "addProposal(string,bytes)": {
        "params": {
          "_link": "IPFS or HTTP link with proposal's description",
          "_title": "Title of the proposal"
        }
      },
      "calculateConviction(uint256,uint256,uint256)": {
        "details": "Conviction formula: a^t * y(0) + x * (1 - a^t) / (1 - a) Solidity implementation: y = (2^128 * a^t * y0 + x * D * (2^128 - 2^128 * a^t) / (D - aD) + 2^127) / 2^128",
        "params": {
          "_lastConv": "Last conviction record",
          "_oldAmount": "Amount of tokens staked until now",
          "_timePassed": "Number of blocks since last conviction record"
        },
        "returns": {
          "_0": "Current conviction"
        }
      },
      "calculateThreshold()": {
        "details": "Formula:  * totalStaked / (1 - a) / ( - minVotesToPass / total)**2 For the Solidity implementation we amplify  and  and simplify the formula: weight =  * D maxRatio =  * D decay = a * D threshold = weight * totalStaked * D ** 2 * funds ** 2 / (D - decay) / (maxRatio * funds - minVotesToPass * D) ** 2",
        "returns": {
          "_threshold": "Threshold a proposal's conviction should surpass in order to be able to executed it."
        }
      },
      "cancelProposal(uint256)": {
        "params": {
          "_proposalId": "Proposal id"
        }
      },
      "castAllVotes(uint256,bool)": {
        "params": {
          "_proposalId": "Proposal id",
          "_support": "Positive or negative"
        }
      },
      "castVotes(uint256,uint256,bool)": {
        "params": {
          "_amount": "Amount of votes to cast",
          "_proposalId": "Proposal id",
          "_support": "Positive or negative"
        }
      },
      "executeProposal(uint256)": {
        "params": {
          "_proposalId": "Proposal id"
        }
      },
      "getProposal(uint256)": {
        "details": "Get proposal details",
        "params": {
          "_proposalId": "Proposal id"
        },
        "returns": {
          "negativeVotes": "Negative votes info",
          "positiveVotes": "Positive votes info",
          "proposalStatus": "ProposalStatus defining the state of the proposal",
          "submitter": "Submitter of the proposal"
        }
      },
      "getProposalUserVotes(uint256,address)": {
        "params": {
          "_proposalId": "Proposal id",
          "_voter": "Voter address"
        },
        "returns": {
          "_0": "Positive user votes",
          "_1": "Negative user votes"
        }
      },
      "getRoleAdmin(bytes32)": {
        "details": "Returns the admin role that controls `role`. See {grantRole} and {revokeRole}. To change a role's admin, use {_setRoleAdmin}."
      },
      "getRoleMember(bytes32,uint256)": {
        "details": "Returns one of the accounts that have `role`. `index` must be a value between 0 and {getRoleMemberCount}, non-inclusive. Role bearers are not sorted in any particular way, and their ordering may change at any point. WARNING: When using {getRoleMember} and {getRoleMemberCount}, make sure you perform all queries on the same block. See the following https://forum.openzeppelin.com/t/iterating-over-elements-on-enumerableset-in-openzeppelin-contracts/2296[forum post] for more information."
      },
      "getRoleMemberCount(bytes32)": {
        "details": "Returns the number of accounts that have `role`. Can be used together with {getRoleMember} to enumerate all bearers of a role."
      },
      "getTotalUserVotes(address)": {
        "params": {
          "_voter": "Voter address"
        },
        "returns": {
          "_0": "Total user votes"
        }
      },
      "getVoterCastedProposals(address)": {
        "params": {
          "_voter": "Voter address"
        },
        "returns": {
          "_0": "Voter proposals"
        }
      },
      "grantRole(bytes32,address)": {
        "details": "Grants `role` to `account`. If `account` had not been already granted `role`, emits a {RoleGranted} event. Requirements: - the caller must have ``role``'s admin role."
      },
      "hasRole(bytes32,address)": {
        "details": "Returns `true` if `account` has been granted `role`."
      },
      "renounceRole(bytes32,address)": {
        "details": "Revokes `role` from the calling account. Roles are often managed via {grantRole} and {revokeRole}: this function's purpose is to provide a mechanism for accounts to lose their privileges if they are compromised (such as when a trusted device is misplaced). If the calling account had been granted `role`, emits a {RoleRevoked} event. Requirements: - the caller must be `account`."
      },
      "revokeRole(bytes32,address)": {
        "details": "Revokes `role` from `account`. If `account` had been granted `role`, emits a {RoleRevoked} event. Requirements: - the caller must have ``role``'s admin role."
      },
      "setConvictionCalculationSettings(uint256,uint256,uint256,uint256,uint256)": {
        "params": {
          "_decay": "The rate at which conviction is accrued or lost from a proposal",
          "_maxRatio": "Proposal threshold parameter",
          "_minThresholdStakePercentage": "The minimum percent of stake token max supply that is used for calculating conviction",
          "_minVotesToPass": "The minimum votes to be passed",
          "_weight": "Proposal threshold parameter"
        }
      },
      "withdrawAllVotesFromProposal(uint256,bool)": {
        "params": {
          "_proposalId": "Proposal id",
          "_support": "Positive or negative"
        }
      },
      "withdrawRequiredVotes(address,uint256,bool)": {
        "details": "Withdraw required votes to move delegates"
      },
      "withdrawVotes(uint256,uint256,bool)": {
        "params": {
          "_amount": "Amount of votes to withdraw",
          "_proposalId": "Proposal id",
          "_support": "Positive or negative"
        }
      }
    },
    "version": 1
  },
  "userdoc": {
    "kind": "user",
    "methods": {
      "addProposal(string,bytes)": {
        "notice": "Add proposal"
      },
      "cancelProposal(uint256)": {
        "notice": "Cancel proposal #`_proposalId`"
      },
      "castAllVotes(uint256,bool)": {
        "notice": "Cast all available votes to proposal"
      },
      "castVotes(uint256,uint256,bool)": {
        "notice": "Cast votes on proposal"
      },
      "executeProposal(uint256)": {
        "notice": "Execute proposal #`_proposalId`"
      },
      "getProposalUserVotes(uint256,address)": {
        "notice": "Get stake of voter `_voter` on proposal #`_proposalId`"
      },
      "getTotalUserVotes(address)": {
        "notice": "Get the total votes of voter `_voter` on all proposals"
      },
      "getVoterCastedProposals(address)": {
        "notice": "Get all proposal ID's voter `_voter` has currently voted"
      },
      "setConvictionCalculationSettings(uint256,uint256,uint256,uint256,uint256)": {
        "notice": "Update the conviction voting parameters"
      },
      "withdrawAllInactiveVotes()": {
        "notice": "Withdraw all votes from executed or cancelled proposal"
      },
      "withdrawAllVotesFromProposal(uint256,bool)": {
        "notice": "Withdraw all votes from proposal"
      },
      "withdrawVotes(uint256,uint256,bool)": {
        "notice": "Withdraw votes from proposal"
      }
    },
    "version": 1
  },
  "storageLayout": {
    "storage": [
      {
        "astId": 22,
        "contract": "contracts/QuartzGovernor.sol:QuartzGovernor",
        "label": "_roles",
        "offset": 0,
        "slot": "0",
        "type": "t_mapping(t_bytes32,t_struct(RoleData)18_storage)"
      },
      {
        "astId": 3126,
        "contract": "contracts/QuartzGovernor.sol:QuartzGovernor",
        "label": "userVotes",
        "offset": 0,
        "slot": "1",
        "type": "t_mapping(t_uint256,t_mapping(t_address,t_uint256))"
      },
      {
        "astId": 3128,
        "contract": "contracts/QuartzGovernor.sol:QuartzGovernor",
        "label": "lastVoteId",
        "offset": 0,
        "slot": "2",
        "type": "t_uint256"
      },
      {
        "astId": 3132,
        "contract": "contracts/QuartzGovernor.sol:QuartzGovernor",
        "label": "decay",
        "offset": 0,
        "slot": "3",
        "type": "t_uint256"
      },
      {
        "astId": 3134,
        "contract": "contracts/QuartzGovernor.sol:QuartzGovernor",
        "label": "maxRatio",
        "offset": 0,
        "slot": "4",
        "type": "t_uint256"
      },
      {
        "astId": 3136,
        "contract": "contracts/QuartzGovernor.sol:QuartzGovernor",
        "label": "weight",
        "offset": 0,
        "slot": "5",
        "type": "t_uint256"
      },
      {
        "astId": 3138,
        "contract": "contracts/QuartzGovernor.sol:QuartzGovernor",
        "label": "minThresholdStakePercentage",
        "offset": 0,
        "slot": "6",
        "type": "t_uint256"
      },
      {
        "astId": 3140,
        "contract": "contracts/QuartzGovernor.sol:QuartzGovernor",
        "label": "minVotesToPass",
        "offset": 0,
        "slot": "7",
        "type": "t_uint256"
      },
      {
        "astId": 3142,
        "contract": "contracts/QuartzGovernor.sol:QuartzGovernor",
        "label": "proposalCounter",
        "offset": 0,
        "slot": "8",
        "type": "t_uint256"
      },
      {
        "astId": 3144,
        "contract": "contracts/QuartzGovernor.sol:QuartzGovernor",
        "label": "totalVotes",
        "offset": 0,
        "slot": "9",
        "type": "t_uint256"
      },
      {
        "astId": 3148,
        "contract": "contracts/QuartzGovernor.sol:QuartzGovernor",
        "label": "proposals",
        "offset": 0,
        "slot": "10",
        "type": "t_mapping(t_uint256,t_struct(Proposal)3120_storage)"
      },
      {
        "astId": 3152,
        "contract": "contracts/QuartzGovernor.sol:QuartzGovernor",
        "label": "totalUserVotes",
        "offset": 0,
        "slot": "11",
        "type": "t_mapping(t_address,t_uint256)"
      },
      {
        "astId": 3157,
        "contract": "contracts/QuartzGovernor.sol:QuartzGovernor",
        "label": "voterCastedProposals",
        "offset": 0,
        "slot": "12",
        "type": "t_mapping(t_address,t_array(t_uint256)dyn_storage)"
      },
      {
        "astId": 3163,
        "contract": "contracts/QuartzGovernor.sol:QuartzGovernor",
        "label": "userVotedProposalIds",
        "offset": 0,
        "slot": "13",
        "type": "t_mapping(t_address,t_mapping(t_uint256,t_uint256))"
      }
    ],
    "types": {
      "t_address": {
        "encoding": "inplace",
        "label": "address",
        "numberOfBytes": "20"
      },
      "t_array(t_bytes32)dyn_storage": {
        "base": "t_bytes32",
        "encoding": "dynamic_array",
        "label": "bytes32[]",
        "numberOfBytes": "32"
      },
      "t_array(t_uint256)dyn_storage": {
        "base": "t_uint256",
        "encoding": "dynamic_array",
        "label": "uint256[]",
        "numberOfBytes": "32"
      },
      "t_bytes32": {
        "encoding": "inplace",
        "label": "bytes32",
        "numberOfBytes": "32"
      },
      "t_enum(ProposalStatus)3102": {
        "encoding": "inplace",
        "label": "enum QuartzGovernor.ProposalStatus",
        "numberOfBytes": "1"
      },
      "t_mapping(t_address,t_array(t_uint256)dyn_storage)": {
        "encoding": "mapping",
        "key": "t_address",
        "label": "mapping(address => uint256[])",
        "numberOfBytes": "32",
        "value": "t_array(t_uint256)dyn_storage"
      },
      "t_mapping(t_address,t_mapping(t_uint256,t_uint256))": {
        "encoding": "mapping",
        "key": "t_address",
        "label": "mapping(address => mapping(uint256 => uint256))",
        "numberOfBytes": "32",
        "value": "t_mapping(t_uint256,t_uint256)"
      },
      "t_mapping(t_address,t_uint256)": {
        "encoding": "mapping",
        "key": "t_address",
        "label": "mapping(address => uint256)",
        "numberOfBytes": "32",
        "value": "t_uint256"
      },
      "t_mapping(t_bytes32,t_struct(RoleData)18_storage)": {
        "encoding": "mapping",
        "key": "t_bytes32",
        "label": "mapping(bytes32 => struct AccessControl.RoleData)",
        "numberOfBytes": "32",
        "value": "t_struct(RoleData)18_storage"
      },
      "t_mapping(t_bytes32,t_uint256)": {
        "encoding": "mapping",
        "key": "t_bytes32",
        "label": "mapping(bytes32 => uint256)",
        "numberOfBytes": "32",
        "value": "t_uint256"
      },
      "t_mapping(t_uint256,t_mapping(t_address,t_uint256))": {
        "encoding": "mapping",
        "key": "t_uint256",
        "label": "mapping(uint256 => mapping(address => uint256))",
        "numberOfBytes": "32",
        "value": "t_mapping(t_address,t_uint256)"
      },
      "t_mapping(t_uint256,t_struct(Proposal)3120_storage)": {
        "encoding": "mapping",
        "key": "t_uint256",
        "label": "mapping(uint256 => struct QuartzGovernor.Proposal)",
        "numberOfBytes": "32",
        "value": "t_struct(Proposal)3120_storage"
      },
      "t_mapping(t_uint256,t_uint256)": {
        "encoding": "mapping",
        "key": "t_uint256",
        "label": "mapping(uint256 => uint256)",
        "numberOfBytes": "32",
        "value": "t_uint256"
      },
      "t_struct(AddressSet)1996_storage": {
        "encoding": "inplace",
        "label": "struct EnumerableSet.AddressSet",
        "members": [
          {
            "astId": 1995,
            "contract": "contracts/QuartzGovernor.sol:QuartzGovernor",
            "label": "_inner",
            "offset": 0,
            "slot": "0",
            "type": "t_struct(Set)1731_storage"
          }
        ],
        "numberOfBytes": "64"
      },
      "t_struct(Proposal)3120_storage": {
        "encoding": "inplace",
        "label": "struct QuartzGovernor.Proposal",
        "members": [
          {
            "astId": 3113,
            "contract": "contracts/QuartzGovernor.sol:QuartzGovernor",
            "label": "positiveVotes",
            "offset": 0,
            "slot": "0",
            "type": "t_struct(Vote)3111_storage"
          },
          {
            "astId": 3115,
            "contract": "contracts/QuartzGovernor.sol:QuartzGovernor",
            "label": "negativeVotes",
            "offset": 0,
            "slot": "4",
            "type": "t_struct(Vote)3111_storage"
          },
          {
            "astId": 3117,
            "contract": "contracts/QuartzGovernor.sol:QuartzGovernor",
            "label": "proposalStatus",
            "offset": 0,
            "slot": "8",
            "type": "t_enum(ProposalStatus)3102"
          },
          {
            "astId": 3119,
            "contract": "contracts/QuartzGovernor.sol:QuartzGovernor",
            "label": "submitter",
            "offset": 1,
            "slot": "8",
            "type": "t_address"
          }
        ],
        "numberOfBytes": "288"
      },
      "t_struct(RoleData)18_storage": {
        "encoding": "inplace",
        "label": "struct AccessControl.RoleData",
        "members": [
          {
            "astId": 15,
            "contract": "contracts/QuartzGovernor.sol:QuartzGovernor",
            "label": "members",
            "offset": 0,
            "slot": "0",
            "type": "t_struct(AddressSet)1996_storage"
          },
          {
            "astId": 17,
            "contract": "contracts/QuartzGovernor.sol:QuartzGovernor",
            "label": "adminRole",
            "offset": 0,
            "slot": "2",
            "type": "t_bytes32"
          }
        ],
        "numberOfBytes": "96"
      },
      "t_struct(Set)1731_storage": {
        "encoding": "inplace",
        "label": "struct EnumerableSet.Set",
        "members": [
          {
            "astId": 1726,
            "contract": "contracts/QuartzGovernor.sol:QuartzGovernor",
            "label": "_values",
            "offset": 0,
            "slot": "0",
            "type": "t_array(t_bytes32)dyn_storage"
          },
          {
            "astId": 1730,
            "contract": "contracts/QuartzGovernor.sol:QuartzGovernor",
            "label": "_indexes",
            "offset": 0,
            "slot": "1",
            "type": "t_mapping(t_bytes32,t_uint256)"
          }
        ],
        "numberOfBytes": "64"
      },
      "t_struct(Vote)3111_storage": {
        "encoding": "inplace",
        "label": "struct QuartzGovernor.Vote",
        "members": [
          {
            "astId": 3104,
            "contract": "contracts/QuartzGovernor.sol:QuartzGovernor",
            "label": "id",
            "offset": 0,
            "slot": "0",
            "type": "t_uint256"
          },
          {
            "astId": 3106,
            "contract": "contracts/QuartzGovernor.sol:QuartzGovernor",
            "label": "totalVotes",
            "offset": 0,
            "slot": "1",
            "type": "t_uint256"
          },
          {
            "astId": 3108,
            "contract": "contracts/QuartzGovernor.sol:QuartzGovernor",
            "label": "convictionLast",
            "offset": 0,
            "slot": "2",
            "type": "t_uint256"
          },
          {
            "astId": 3110,
            "contract": "contracts/QuartzGovernor.sol:QuartzGovernor",
            "label": "blockLast",
            "offset": 0,
            "slot": "3",
            "type": "t_uint256"
          }
        ],
        "numberOfBytes": "128"
      },
      "t_uint256": {
        "encoding": "inplace",
        "label": "uint256",
        "numberOfBytes": "32"
      }
    }
  }
}