{
  "address": "0xBD06C5C55E68573C96E3F6c3A620d34ED0Dac31A",
  "abi": [
    {
      "inputs": [
        {
          "internalType": "contract IERC20",
          "name": "_token",
          "type": "address"
        },
        {
          "internalType": "uint64",
          "name": "_start",
          "type": "uint64"
        },
        {
          "internalType": "uint256",
          "name": "_startAmount",
          "type": "uint256"
        },
        {
          "internalType": "uint64",
          "name": "_batchDuration",
          "type": "uint64"
        },
        {
          "internalType": "uint256",
          "name": "_batchSize",
          "type": "uint256"
        }
      ],
      "stateMutability": "nonpayable",
      "type": "constructor"
    },
    {
      "anonymous": false,
      "inputs": [
        {
          "indexed": true,
          "internalType": "address",
          "name": "beneficiary",
          "type": "address"
        },
        {
          "indexed": false,
          "internalType": "uint256",
          "name": "amount",
          "type": "uint256"
        }
      ],
      "name": "ClaimAdded",
      "type": "event"
    },
    {
      "anonymous": false,
      "inputs": [
        {
          "indexed": true,
          "internalType": "address",
          "name": "beneficiary",
          "type": "address"
        },
        {
          "indexed": false,
          "internalType": "uint256",
          "name": "amount",
          "type": "uint256"
        }
      ],
      "name": "Claimed",
      "type": "event"
    },
    {
      "anonymous": false,
      "inputs": [
        {
          "indexed": false,
          "internalType": "uint64",
          "name": "start",
          "type": "uint64"
        },
        {
          "indexed": false,
          "internalType": "uint256",
          "name": "startAmount",
          "type": "uint256"
        },
        {
          "indexed": false,
          "internalType": "uint64",
          "name": "batchDuration",
          "type": "uint64"
        },
        {
          "indexed": false,
          "internalType": "uint256",
          "name": "batchSize",
          "type": "uint256"
        }
      ],
      "name": "ConfigurationChanged",
      "type": "event"
    },
    {
      "anonymous": false,
      "inputs": [
        {
          "indexed": true,
          "internalType": "address",
          "name": "previousOwner",
          "type": "address"
        },
        {
          "indexed": true,
          "internalType": "address",
          "name": "newOwner",
          "type": "address"
        }
      ],
      "name": "OwnershipTransferred",
      "type": "event"
    },
    {
      "inputs": [
        {
          "internalType": "address",
          "name": "_beneficiary",
          "type": "address"
        },
        {
          "internalType": "uint256",
          "name": "_amount",
          "type": "uint256"
        }
      ],
      "name": "addClaimable",
      "outputs": [],
      "stateMutability": "nonpayable",
      "type": "function"
    },
    {
      "inputs": [
        {
          "internalType": "address",
          "name": "_beneficiary",
          "type": "address"
        },
        {
          "internalType": "uint256",
          "name": "_amount",
          "type": "uint256"
        }
      ],
      "name": "addUniqueClaimable",
      "outputs": [],
      "stateMutability": "nonpayable",
      "type": "function"
    },
    {
      "inputs": [],
      "name": "batchDuration",
      "outputs": [
        {
          "internalType": "uint64",
          "name": "",
          "type": "uint64"
        }
      ],
      "stateMutability": "view",
      "type": "function"
    },
    {
      "inputs": [],
      "name": "batchSize",
      "outputs": [
        {
          "internalType": "uint256",
          "name": "",
          "type": "uint256"
        }
      ],
      "stateMutability": "view",
      "type": "function"
    },
    {
      "inputs": [
        {
          "internalType": "uint64",
          "name": "_start",
          "type": "uint64"
        },
        {
          "internalType": "uint256",
          "name": "_startAmount",
          "type": "uint256"
        },
        {
          "internalType": "uint64",
          "name": "_batchDuration",
          "type": "uint64"
        },
        {
          "internalType": "uint256",
          "name": "_batchSize",
          "type": "uint256"
        }
      ],
      "name": "changeBatches",
      "outputs": [],
      "stateMutability": "nonpayable",
      "type": "function"
    },
    {
      "inputs": [
        {
          "internalType": "address",
          "name": "_beneficiary",
          "type": "address"
        }
      ],
      "name": "claim",
      "outputs": [],
      "stateMutability": "nonpayable",
      "type": "function"
    },
    {
      "inputs": [
        {
          "internalType": "address",
          "name": "",
          "type": "address"
        }
      ],
      "name": "claimable",
      "outputs": [
        {
          "internalType": "uint256",
          "name": "",
          "type": "uint256"
        }
      ],
      "stateMutability": "view",
      "type": "function"
    },
    {
      "inputs": [
        {
          "internalType": "address",
          "name": "",
          "type": "address"
        }
      ],
      "name": "claimed",
      "outputs": [
        {
          "internalType": "uint256",
          "name": "",
          "type": "uint256"
        }
      ],
      "stateMutability": "view",
      "type": "function"
    },
    {
      "inputs": [
        {
          "internalType": "address",
          "name": "_beneficiary",
          "type": "address"
        }
      ],
      "name": "currentlyClaimable",
      "outputs": [
        {
          "internalType": "uint256",
          "name": "",
          "type": "uint256"
        }
      ],
      "stateMutability": "view",
      "type": "function"
    },
    {
      "inputs": [],
      "name": "owner",
      "outputs": [
        {
          "internalType": "address",
          "name": "",
          "type": "address"
        }
      ],
      "stateMutability": "view",
      "type": "function"
    },
    {
      "inputs": [],
      "name": "renounceOwnership",
      "outputs": [],
      "stateMutability": "nonpayable",
      "type": "function"
    },
    {
      "inputs": [],
      "name": "start",
      "outputs": [
        {
          "internalType": "uint64",
          "name": "",
          "type": "uint64"
        }
      ],
      "stateMutability": "view",
      "type": "function"
    },
    {
      "inputs": [],
      "name": "startAmount",
      "outputs": [
        {
          "internalType": "uint256",
          "name": "",
          "type": "uint256"
        }
      ],
      "stateMutability": "view",
      "type": "function"
    },
    {
      "inputs": [],
      "name": "token",
      "outputs": [
        {
          "internalType": "contract IERC20",
          "name": "",
          "type": "address"
        }
      ],
      "stateMutability": "view",
      "type": "function"
    },
    {
      "inputs": [],
      "name": "totalClaimable",
      "outputs": [
        {
          "internalType": "uint256",
          "name": "",
          "type": "uint256"
        }
      ],
      "stateMutability": "view",
      "type": "function"
    },
    {
      "inputs": [],
      "name": "totalClaimed",
      "outputs": [
        {
          "internalType": "uint256",
          "name": "",
          "type": "uint256"
        }
      ],
      "stateMutability": "view",
      "type": "function"
    },
    {
      "inputs": [
        {
          "internalType": "address",
          "name": "newOwner",
          "type": "address"
        }
      ],
      "name": "transferOwnership",
      "outputs": [],
      "stateMutability": "nonpayable",
      "type": "function"
    },
    {
      "inputs": [],
      "name": "withdrawExcess",
      "outputs": [],
      "stateMutability": "nonpayable",
      "type": "function"
    }
  ],
  "transactionHash": "0x6fd0211e76ef8eb964437e5b2cb43a864ebaf62fa13b0cbe1a0c9f9491035eed",
  "args": [
    "0x88629b29A0aA57F206606D293467A985Ca9f0222",
    1636128000,
    "100000000000000000000",
    600,
    "100000000000000000000"
  ],
  "solcInputHash": "2321d8b3fd0794469dce999792e6a3fe",
  "bytecode": "0x60a060405234801561001057600080fd5b50604051620012b4380380620012b48339810160408190526100319161014b565b61003a336100df565b836001600160401b03164211156100975760405162461bcd60e51b815260206004820152601b60248201527f73746172742063616e6e6f7420626520696e2074686520706173740000000000604482015260640160405180910390fd5b6001600160a01b03909416608052600580546001600160401b039485166001600160401b031991821617909155600692909255600780549190931691161790556008556101b0565b600080546001600160a01b038381166001600160a01b0319831681178455604051919092169283917f8be0079c531659141344cd1fd0a4f28419497f9722a3daafe3b4186f6b6457e09190a35050565b80516001600160401b038116811461014657600080fd5b919050565b600080600080600060a0868803121561016357600080fd5b85516001600160a01b038116811461017a57600080fd5b94506101886020870161012f565b93506040860151925061019d6060870161012f565b9150608086015190509295509295909350565b6080516110c5620001ef600039600081816102810152818161048d015281816106dc0152818161097301528181610a610152610aef01526110c56000f3fe608060405234801561001057600080fd5b50600436106101165760003560e01c8063a47a65d8116100a2578063c884ef8311610071578063c884ef8314610237578063d54ad2a114610257578063f2fde38b14610260578063f4daaba114610273578063fc0c546a1461027c57600080fd5b8063a47a65d8146101f5578063b8ca742914610208578063be9a65551461021b578063c264a0631461022f57600080fd5b80634838ed19116100e95780634838ed191461017f578063715018a6146101885780638da5cb5b146101905780638f36bf14146101b55780639c9563a2146101c857600080fd5b80630401c8b11461011b5780630f767872146101415780631e83409a1461014a578063402914f51461015f575b600080fd5b61012e610129366004610e79565b6102a3565b6040519081526020015b60405180910390f35b61012e60065481565b61015d610158366004610e79565b61035f565b005b61012e61016d366004610e79565b60016020526000908152604090205481565b61012e60035481565b61015d6104b8565b6000546001600160a01b03165b6040516001600160a01b039091168152602001610138565b61015d6101c3366004610e94565b6104ee565b6007546101dc9067ffffffffffffffff1681565b60405167ffffffffffffffff9091168152602001610138565b61015d610203366004610e94565b61061b565b61015d610216366004610ed6565b6107af565b6005546101dc9067ffffffffffffffff1681565b61015d610934565b61012e610245366004610e79565b60026020526000908152604090205481565b61012e60045481565b61015d61026e366004610e79565b610b16565b61012e60085481565b61019d7f000000000000000000000000000000000000000000000000000000000000000081565b60055460009067ffffffffffffffff1642116102c157506000919050565b60075460055460009167ffffffffffffffff908116916102e2911642610f30565b6102ec9190610f47565b6001600160a01b038416600090815260026020526040812054600654600854939450919290919061031d9085610f69565b6103279190610f88565b6103319190610f30565b6001600160a01b0385166000908152600160205260409020549091506103579082610bb1565b949350505050565b600061036a826102a3565b9050600081116103b65760405162461bcd60e51b81526020600482015260126024820152716e6f20746f6b656e7320746f20636c61696d60701b60448201526064015b60405180910390fd5b6001600160a01b038216600090815260016020526040812080548392906103de908490610f30565b90915550506001600160a01b0382166000908152600260205260408120805483929061040b908490610f88565b9250508190555080600360008282546104249190610f30565b92505081905550806004600082825461043d9190610f88565b90915550506040518181526001600160a01b038316907fd8138f8a3f377c5259ca548e70e4c2de94f129f5a11036a15b69513cba2b426a9060200160405180910390a26104b46001600160a01b037f0000000000000000000000000000000000000000000000000000000000000000168383610bc9565b5050565b6000546001600160a01b031633146104e25760405162461bcd60e51b81526004016103ad90610fa0565b6104ec6000610c20565b565b6000546001600160a01b031633146105185760405162461bcd60e51b81526004016103ad90610fa0565b6001600160a01b038216600090815260016020526040902054156105955760405162461bcd60e51b815260206004820152602e60248201527f7468652062656e656669636961727920616c726561647920686173206120636c60448201526d185a5b58589b1948185b5bdd5b9d60921b60648201526084016103ad565b80600360008282546105a79190610f88565b90915550506001600160a01b038216600090815260016020526040812080548392906105d4908490610f88565b90915550506040518181526001600160a01b038316907fe3dd2e44b81a132b21e09a3fe99525d7da72e6de880f7abdd4eb2c7c873f59179060200160405180910390a25050565b6000546001600160a01b031633146106455760405162461bcd60e51b81526004016103ad90610fa0565b80600360008282546106579190610f88565b90915550506001600160a01b03821660009081526001602052604081208054839290610684908490610f88565b90915550506040518181526001600160a01b038316907fe3dd2e44b81a132b21e09a3fe99525d7da72e6de880f7abdd4eb2c7c873f59179060200160405180910390a26040516370a0823160e01b81523060048201527f00000000000000000000000000000000000000000000000000000000000000006001600160a01b0316906370a082319060240160206040518083038186803b15801561072657600080fd5b505afa15801561073a573d6000803e3d6000fd5b505050506040513d601f19601f8201168201806040525081019061075e9190610fd5565b60035411156104b45760405162461bcd60e51b815260206004820152601d60248201527f6e6f7420656e6f75676820746f6b656e73206f6e20636f6e747261637400000060448201526064016103ad565b6000546001600160a01b031633146107d95760405162461bcd60e51b81526004016103ad90610fa0565b8367ffffffffffffffff164211156108335760405162461bcd60e51b815260206004820152601b60248201527f73746172742063616e6e6f7420626520696e207468652070617374000000000060448201526064016103ad565b60055467ffffffffffffffff164211156108a85760075460055460009167ffffffffffffffff90811691610868911642610f30565b6108729190610f47565b90506000600854826108849190610f69565b905061089d816006546108979190610f88565b86610c70565b600655506108ae9050565b60068390555b6005805467ffffffffffffffff86811667ffffffffffffffff199283168117909355600780549186169190921681179091556008839055600654604080519384526020840191909152820152606081018290527fcb7fd3f8d73648114258e037ef15d5edd57502b066ff13ac05ddf400ab6ee1cf9060800160405180910390a150505050565b6000546001600160a01b0316331461095e5760405162461bcd60e51b81526004016103ad90610fa0565b6040516370a0823160e01b81523060048201527f00000000000000000000000000000000000000000000000000000000000000006001600160a01b0316906370a082319060240160206040518083038186803b1580156109bd57600080fd5b505afa1580156109d1573d6000803e3d6000fd5b505050506040513d601f19601f820116820180604052508101906109f59190610fd5565b60035410610a3b5760405162461bcd60e51b81526020600482015260136024820152726e6f7468696e6720746f20776974686472617760681b60448201526064016103ad565b6003546040516370a0823160e01b81523060048201526104ec9133916001600160a01b037f000000000000000000000000000000000000000000000000000000000000000016906370a082319060240160206040518083038186803b158015610aa357600080fd5b505afa158015610ab7573d6000803e3d6000fd5b505050506040513d601f19601f82011682018060405250810190610adb9190610fd5565b610ae59190610f30565b6001600160a01b037f0000000000000000000000000000000000000000000000000000000000000000169190610bc9565b6000546001600160a01b03163314610b405760405162461bcd60e51b81526004016103ad90610fa0565b6001600160a01b038116610ba55760405162461bcd60e51b815260206004820152602660248201527f4f776e61626c653a206e6577206f776e657220697320746865207a65726f206160448201526564647265737360d01b60648201526084016103ad565b610bae81610c20565b50565b6000818310610bc05781610bc2565b825b9392505050565b604080516001600160a01b038416602482015260448082018490528251808303909101815260649091019091526020810180516001600160e01b031663a9059cbb60e01b179052610c1b908490610c80565b505050565b600080546001600160a01b038381166001600160a01b0319831681178455604051919092169283917f8be0079c531659141344cd1fd0a4f28419497f9722a3daafe3b4186f6b6457e09190a35050565b600081831015610bc05781610bc2565b6000610cd5826040518060400160405280602081526020017f5361666545524332303a206c6f772d6c6576656c2063616c6c206661696c6564815250856001600160a01b0316610d529092919063ffffffff16565b805190915015610c1b5780806020019051810190610cf39190610fee565b610c1b5760405162461bcd60e51b815260206004820152602a60248201527f5361666545524332303a204552433230206f7065726174696f6e20646964206e6044820152691bdd081cdd58d8d9595960b21b60648201526084016103ad565b6060610357848460008585843b610dab5760405162461bcd60e51b815260206004820152601d60248201527f416464726573733a2063616c6c20746f206e6f6e2d636f6e747261637400000060448201526064016103ad565b600080866001600160a01b03168587604051610dc79190611040565b60006040518083038185875af1925050503d8060008114610e04576040519150601f19603f3d011682016040523d82523d6000602084013e610e09565b606091505b5091509150610e19828286610e24565b979650505050505050565b60608315610e33575081610bc2565b825115610e435782518084602001fd5b8160405162461bcd60e51b81526004016103ad919061105c565b80356001600160a01b0381168114610e7457600080fd5b919050565b600060208284031215610e8b57600080fd5b610bc282610e5d565b60008060408385031215610ea757600080fd5b610eb083610e5d565b946020939093013593505050565b803567ffffffffffffffff81168114610e7457600080fd5b60008060008060808587031215610eec57600080fd5b610ef585610ebe565b935060208501359250610f0a60408601610ebe565b9396929550929360600135925050565b634e487b7160e01b600052601160045260246000fd5b600082821015610f4257610f42610f1a565b500390565b600082610f6457634e487b7160e01b600052601260045260246000fd5b500490565b6000816000190483118215151615610f8357610f83610f1a565b500290565b60008219821115610f9b57610f9b610f1a565b500190565b6020808252818101527f4f776e61626c653a2063616c6c6572206973206e6f7420746865206f776e6572604082015260600190565b600060208284031215610fe757600080fd5b5051919050565b60006020828403121561100057600080fd5b81518015158114610bc257600080fd5b60005b8381101561102b578181015183820152602001611013565b8381111561103a576000848401525b50505050565b60008251611052818460208701611010565b9190910192915050565b602081526000825180602084015261107b816040850160208701611010565b601f01601f1916919091016040019291505056fea2646970667358221220878121cad149cc8c21648e734712aa9b4561721f503a7918925e656a2fcdacc564736f6c63430008090033",
  "devdoc": {
    "kind": "dev",
    "methods": {
      "addClaimable(address,uint256)": {
        "params": {
          "_amount": "Amount of tokens to add",
          "_beneficiary": "Address of the beneficiary"
        }
      },
      "addUniqueClaimable(address,uint256)": {
        "params": {
          "_amount": "Amount of tokens to add",
          "_beneficiary": "Address of the beneficiary"
        }
      },
      "changeBatches(uint64,uint256,uint64,uint256)": {
        "params": {
          "_batchDuration": "The new batch duration.",
          "_batchSize": "The new batch size.",
          "_start": "The new start date.",
          "_startAmount": "The new start amount."
        }
      },
      "claim(address)": {
        "params": {
          "_beneficiary": "The address of the beneficiary"
        }
      },
      "currentlyClaimable(address)": {
        "params": {
          "_beneficiary": "The address of the beneficiary."
        },
        "returns": {
          "_0": "the beneficiary's claimable amount."
        }
      },
      "owner()": {
        "details": "Returns the address of the current owner."
      },
      "renounceOwnership()": {
        "details": "Leaves the contract without owner. It will not be possible to call `onlyOwner` functions anymore. Can only be called by the current owner. NOTE: Renouncing ownership will leave the contract without an owner, thereby removing any functionality that is only available to the owner."
      },
      "transferOwnership(address)": {
        "details": "Transfers ownership of the contract to a new account (`newOwner`). Can only be called by the current owner."
      }
    },
    "version": 1
  },
  "userdoc": {
    "kind": "user",
    "methods": {
      "addClaimable(address,uint256)": {
        "notice": "Adds a given amount of tokens to be claimed by a beneficiary. If the beneficiary already has a claim, this will simply increase the claimable amount.This ensures the current token balance of the contract is enough to fulfill all future claims. Therefore, the required tokens need to be transfered before-hand."
      },
      "addUniqueClaimable(address,uint256)": {
        "notice": "Adds a given amount of tokens to be claimed by a beneficiary. If the beneficiary already has a claim, this will fail."
      },
      "changeBatches(uint64,uint256,uint64,uint256)": {
        "notice": "Updates the batch parameters.The new start date can only be in the future.After it starts, the new startAmount will never be less than the existing startAmount + nr of batches * batch size."
      },
      "claim(address)": {
        "notice": "Transfers the claimable amount to the beneficiary."
      },
      "currentlyClaimable(address)": {
        "notice": "Calculates amount that can be currently claimed by a beneficiary, based on the vested amount, and how much has been already unlocked."
      },
      "withdrawExcess()": {
        "notice": "Allows the owner to withdraw execess funds in the contract."
      }
    },
    "notice": "Vesting contract for QUARTZ (Polygon chain) QUARTZ for Phase I token owners are meant to be vested, and claims should be in batches.",
    "version": 1
  },
  "storageLayout": {
    "storage": [
      {
        "astId": 7,
        "contract": "contracts/Vesting.sol:Vesting",
        "label": "_owner",
        "offset": 0,
        "slot": "0",
        "type": "t_address"
      },
      {
        "astId": 2671,
        "contract": "contracts/Vesting.sol:Vesting",
        "label": "claimable",
        "offset": 0,
        "slot": "1",
        "type": "t_mapping(t_address,t_uint256)"
      },
      {
        "astId": 2675,
        "contract": "contracts/Vesting.sol:Vesting",
        "label": "claimed",
        "offset": 0,
        "slot": "2",
        "type": "t_mapping(t_address,t_uint256)"
      },
      {
        "astId": 2677,
        "contract": "contracts/Vesting.sol:Vesting",
        "label": "totalClaimable",
        "offset": 0,
        "slot": "3",
        "type": "t_uint256"
      },
      {
        "astId": 2679,
        "contract": "contracts/Vesting.sol:Vesting",
        "label": "totalClaimed",
        "offset": 0,
        "slot": "4",
        "type": "t_uint256"
      },
      {
        "astId": 2681,
        "contract": "contracts/Vesting.sol:Vesting",
        "label": "start",
        "offset": 0,
        "slot": "5",
        "type": "t_uint64"
      },
      {
        "astId": 2683,
        "contract": "contracts/Vesting.sol:Vesting",
        "label": "startAmount",
        "offset": 0,
        "slot": "6",
        "type": "t_uint256"
      },
      {
        "astId": 2685,
        "contract": "contracts/Vesting.sol:Vesting",
        "label": "batchDuration",
        "offset": 0,
        "slot": "7",
        "type": "t_uint64"
      },
      {
        "astId": 2687,
        "contract": "contracts/Vesting.sol:Vesting",
        "label": "batchSize",
        "offset": 0,
        "slot": "8",
        "type": "t_uint256"
      }
    ],
    "types": {
      "t_address": {
        "encoding": "inplace",
        "label": "address",
        "numberOfBytes": "20"
      },
      "t_mapping(t_address,t_uint256)": {
        "encoding": "mapping",
        "key": "t_address",
        "label": "mapping(address => uint256)",
        "numberOfBytes": "32",
        "value": "t_uint256"
      },
      "t_uint256": {
        "encoding": "inplace",
        "label": "uint256",
        "numberOfBytes": "32"
      },
      "t_uint64": {
        "encoding": "inplace",
        "label": "uint64",
        "numberOfBytes": "8"
      }
    }
  }
}