{
  "address": "0x5dD8905AEC612529361A35372EFD5b127BB182b3",
  "abi": [
    {
      "inputs": [
        {
          "internalType": "contract IERC20",
          "name": "_quartz",
          "type": "address"
        },
        {
          "internalType": "uint64",
          "name": "_start",
          "type": "uint64"
        },
        {
          "internalType": "uint64",
          "name": "_duration",
          "type": "uint64"
        },
        {
          "internalType": "uint64",
          "name": "_gracePeriod",
          "type": "uint64"
        }
      ],
      "stateMutability": "nonpayable",
      "type": "constructor"
    },
    {
      "anonymous": false,
      "inputs": [
        {
          "indexed": true,
          "internalType": "address",
          "name": "owner",
          "type": "address"
        },
        {
          "indexed": true,
          "internalType": "address",
          "name": "spender",
          "type": "address"
        },
        {
          "indexed": false,
          "internalType": "uint256",
          "name": "value",
          "type": "uint256"
        }
      ],
      "name": "Approval",
      "type": "event"
    },
    {
      "anonymous": false,
      "inputs": [
        {
          "indexed": true,
          "internalType": "address",
          "name": "previousOwner",
          "type": "address"
        },
        {
          "indexed": true,
          "internalType": "address",
          "name": "newOwner",
          "type": "address"
        }
      ],
      "name": "OwnershipTransferred",
      "type": "event"
    },
    {
      "anonymous": false,
      "inputs": [
        {
          "indexed": true,
          "internalType": "address",
          "name": "from",
          "type": "address"
        },
        {
          "indexed": true,
          "internalType": "address",
          "name": "to",
          "type": "address"
        },
        {
          "indexed": false,
          "internalType": "uint256",
          "name": "value",
          "type": "uint256"
        }
      ],
      "name": "Transfer",
      "type": "event"
    },
    {
      "inputs": [
        {
          "internalType": "address",
          "name": "owner",
          "type": "address"
        },
        {
          "internalType": "address",
          "name": "spender",
          "type": "address"
        }
      ],
      "name": "allowance",
      "outputs": [
        {
          "internalType": "uint256",
          "name": "",
          "type": "uint256"
        }
      ],
      "stateMutability": "view",
      "type": "function"
    },
    {
      "inputs": [
        {
          "internalType": "address",
          "name": "spender",
          "type": "address"
        },
        {
          "internalType": "uint256",
          "name": "amount",
          "type": "uint256"
        }
      ],
      "name": "approve",
      "outputs": [
        {
          "internalType": "bool",
          "name": "",
          "type": "bool"
        }
      ],
      "stateMutability": "nonpayable",
      "type": "function"
    },
    {
      "inputs": [
        {
          "internalType": "address",
          "name": "account",
          "type": "address"
        }
      ],
      "name": "balanceOf",
      "outputs": [
        {
          "internalType": "uint256",
          "name": "",
          "type": "uint256"
        }
      ],
      "stateMutability": "view",
      "type": "function"
    },
    {
      "inputs": [],
      "name": "clawback",
      "outputs": [],
      "stateMutability": "nonpayable",
      "type": "function"
    },
    {
      "inputs": [],
      "name": "decimals",
      "outputs": [
        {
          "internalType": "uint8",
          "name": "",
          "type": "uint8"
        }
      ],
      "stateMutability": "view",
      "type": "function"
    },
    {
      "inputs": [
        {
          "internalType": "address",
          "name": "spender",
          "type": "address"
        },
        {
          "internalType": "uint256",
          "name": "subtractedValue",
          "type": "uint256"
        }
      ],
      "name": "decreaseAllowance",
      "outputs": [
        {
          "internalType": "bool",
          "name": "",
          "type": "bool"
        }
      ],
      "stateMutability": "nonpayable",
      "type": "function"
    },
    {
      "inputs": [
        {
          "internalType": "uint256",
          "name": "_amount",
          "type": "uint256"
        }
      ],
      "name": "deposit",
      "outputs": [],
      "stateMutability": "nonpayable",
      "type": "function"
    },
    {
      "inputs": [],
      "name": "duration",
      "outputs": [
        {
          "internalType": "uint64",
          "name": "",
          "type": "uint64"
        }
      ],
      "stateMutability": "view",
      "type": "function"
    },
    {
      "inputs": [],
      "name": "gracePeriod",
      "outputs": [
        {
          "internalType": "uint64",
          "name": "",
          "type": "uint64"
        }
      ],
      "stateMutability": "view",
      "type": "function"
    },
    {
      "inputs": [
        {
          "internalType": "address",
          "name": "spender",
          "type": "address"
        },
        {
          "internalType": "uint256",
          "name": "addedValue",
          "type": "uint256"
        }
      ],
      "name": "increaseAllowance",
      "outputs": [
        {
          "internalType": "bool",
          "name": "",
          "type": "bool"
        }
      ],
      "stateMutability": "nonpayable",
      "type": "function"
    },
    {
      "inputs": [],
      "name": "name",
      "outputs": [
        {
          "internalType": "string",
          "name": "",
          "type": "string"
        }
      ],
      "stateMutability": "view",
      "type": "function"
    },
    {
      "inputs": [],
      "name": "owner",
      "outputs": [
        {
          "internalType": "address",
          "name": "",
          "type": "address"
        }
      ],
      "stateMutability": "view",
      "type": "function"
    },
    {
      "inputs": [],
      "name": "quartz",
      "outputs": [
        {
          "internalType": "contract IERC20",
          "name": "",
          "type": "address"
        }
      ],
      "stateMutability": "view",
      "type": "function"
    },
    {
      "inputs": [],
      "name": "renounceOwnership",
      "outputs": [],
      "stateMutability": "nonpayable",
      "type": "function"
    },
    {
      "inputs": [],
      "name": "start",
      "outputs": [
        {
          "internalType": "uint64",
          "name": "",
          "type": "uint64"
        }
      ],
      "stateMutability": "view",
      "type": "function"
    },
    {
      "inputs": [],
      "name": "symbol",
      "outputs": [
        {
          "internalType": "string",
          "name": "",
          "type": "string"
        }
      ],
      "stateMutability": "view",
      "type": "function"
    },
    {
      "inputs": [],
      "name": "totalSupply",
      "outputs": [
        {
          "internalType": "uint256",
          "name": "",
          "type": "uint256"
        }
      ],
      "stateMutability": "view",
      "type": "function"
    },
    {
      "inputs": [
        {
          "internalType": "address",
          "name": "recipient",
          "type": "address"
        },
        {
          "internalType": "uint256",
          "name": "amount",
          "type": "uint256"
        }
      ],
      "name": "transfer",
      "outputs": [
        {
          "internalType": "bool",
          "name": "",
          "type": "bool"
        }
      ],
      "stateMutability": "nonpayable",
      "type": "function"
    },
    {
      "inputs": [
        {
          "internalType": "address",
          "name": "sender",
          "type": "address"
        },
        {
          "internalType": "address",
          "name": "recipient",
          "type": "address"
        },
        {
          "internalType": "uint256",
          "name": "amount",
          "type": "uint256"
        }
      ],
      "name": "transferFrom",
      "outputs": [
        {
          "internalType": "bool",
          "name": "",
          "type": "bool"
        }
      ],
      "stateMutability": "nonpayable",
      "type": "function"
    },
    {
      "inputs": [
        {
          "internalType": "address",
          "name": "newOwner",
          "type": "address"
        }
      ],
      "name": "transferOwnership",
      "outputs": [],
      "stateMutability": "nonpayable",
      "type": "function"
    },
    {
      "inputs": [],
      "name": "withdraw",
      "outputs": [],
      "stateMutability": "nonpayable",
      "type": "function"
    },
    {
      "inputs": [
        {
          "internalType": "address",
          "name": "_beneficiary",
          "type": "address"
        }
      ],
      "name": "withdrawFor",
      "outputs": [],
      "stateMutability": "nonpayable",
      "type": "function"
    },
    {
      "inputs": [
        {
          "internalType": "address",
          "name": "_beneficiary",
          "type": "address"
        }
      ],
      "name": "withdrawable",
      "outputs": [
        {
          "internalType": "uint256",
          "name": "",
          "type": "uint256"
        }
      ],
      "stateMutability": "view",
      "type": "function"
    },
    {
      "inputs": [
        {
          "internalType": "address",
          "name": "",
          "type": "address"
        }
      ],
      "name": "withdrawals",
      "outputs": [
        {
          "internalType": "uint256",
          "name": "",
          "type": "uint256"
        }
      ],
      "stateMutability": "view",
      "type": "function"
    }
  ],
  "transactionHash": "0xa7c4d309019a49cbbaf19aceeef71bc53b024ff40c6a309b04143f8ef6b9629c",
  "args": [
    "0xbA8A621b4a54e61C442F5Ec623687e2a942225ef",
    "1636200000",
    "7776000",
    "15552000"
  ],
  "solcInputHash": "1420032115f1cce33bfe4192c8395c65",
  "bytecode": "0x6101006040523480156200001257600080fd5b5060405162001ce038038062001ce0833981016040819052620000359162000329565b604080518082018252601a81527f53616e64636c6f636b202876657374656420726577617264732900000000000060208083019182528351808501909452600c84526b3b32b9ba32b228aaa0a92a2d60a11b9084015281519192916200009e9160039162000266565b508051620000b490600490602084019062000266565b505050620000d1620000cb6200021060201b60201c565b62000214565b42836001600160401b0316116200012f5760405162461bcd60e51b815260206004820181905260248201527f737461727420646174652063616e6e6f7420626520696e20746865207061737460448201526064015b60405180910390fd5b6000826001600160401b0316116200018a5760405162461bcd60e51b815260206004820152601460248201527f6475726174696f6e2063616e6e6f742062652030000000000000000000000000604482015260640162000126565b6000816001600160401b031611620001e55760405162461bcd60e51b815260206004820152601760248201527f6772616365506572696f642063616e6e6f742062652030000000000000000000604482015260640162000126565b6001600160a01b039093166080526001600160401b0391821660a052811660c0521660e052620003d0565b3390565b600580546001600160a01b038381166001600160a01b0319831681179093556040519116919082907f8be0079c531659141344cd1fd0a4f28419497f9722a3daafe3b4186f6b6457e090600090a35050565b828054620002749062000393565b90600052602060002090601f016020900481019282620002985760008555620002e3565b82601f10620002b357805160ff1916838001178555620002e3565b82800160010185558215620002e3579182015b82811115620002e3578251825591602001919060010190620002c6565b50620002f1929150620002f5565b5090565b5b80821115620002f15760008155600101620002f6565b80516001600160401b03811681146200032457600080fd5b919050565b600080600080608085870312156200034057600080fd5b84516001600160a01b03811681146200035857600080fd5b935062000368602086016200030c565b925062000378604086016200030c565b915062000388606086016200030c565b905092959194509250565b600181811c90821680620003a857607f821691505b60208210811415620003ca57634e487b7160e01b600052602260045260246000fd5b50919050565b60805160a05160c05160e05161188962000457600039600081816102cd01526105310152600081816101a301528181610c2a0152610fab01526000818161032d01528181610c4b01528181610cef01528181610f560152610fd2015260008181610354015281816105fc01528181610685015281816108f50152610dae01526118896000f3fe608060405234801561001057600080fd5b50600436106101585760003560e01c80638da5cb5b116100c3578063b6b55f251161007c578063b6b55f2514610315578063be9a655514610328578063c0d22e941461034f578063ce513b6f14610376578063dd62ed3e14610389578063f2fde38b146103c257600080fd5b80638da5cb5b1461028857806395d89b41146102ad5780639eca672c146102b5578063a06db7dc146102c8578063a457c2d7146102ef578063a9059cbb1461030257600080fd5b8063313ce56711610115578063313ce5671461020d578063395093511461021c5780633ccfd60b1461022f57806370a0823114610237578063715018a6146102605780637a9262a21461026857600080fd5b806306fdde031461015d578063095ea7b31461017b5780630fb5a6b41461019e57806318160ddd146101de57806323b872dd146101f05780632526d96014610203575b600080fd5b6101656103d5565b6040516101729190611536565b60405180910390f35b61018e610189366004611585565b610467565b6040519015158152602001610172565b6101c57f000000000000000000000000000000000000000000000000000000000000000081565b60405167ffffffffffffffff9091168152602001610172565b6002545b604051908152602001610172565b61018e6101fe3660046115af565b61047d565b61020b61052e565b005b60405160128152602001610172565b61018e61022a366004611585565b6106b7565b61020b6106f3565b6101e26102453660046115eb565b6001600160a01b031660009081526020819052604090205490565b61020b610744565b6101e26102763660046115eb565b60066020526000908152604090205481565b6005546001600160a01b03165b6040516001600160a01b039091168152602001610172565b610165610778565b61020b6102c33660046115eb565b610787565b6101c57f000000000000000000000000000000000000000000000000000000000000000081565b61018e6102fd366004611585565b610803565b61018e610310366004611585565b61089c565b61020b610323366004611606565b6108a9565b6101c57f000000000000000000000000000000000000000000000000000000000000000081565b6102957f000000000000000000000000000000000000000000000000000000000000000081565b6101e26103843660046115eb565b61092f565b6101e261039736600461161f565b6001600160a01b03918216600090815260016020908152604080832093909416825291909152205490565b61020b6103d03660046115eb565b6109da565b6060600380546103e490611652565b80601f016020809104026020016040519081016040528092919081815260200182805461041090611652565b801561045d5780601f106104325761010080835404028352916020019161045d565b820191906000526020600020905b81548152906001019060200180831161044057829003601f168201915b5050505050905090565b6000610474338484610a72565b50600192915050565b600061048a848484610b96565b6001600160a01b0384166000908152600160209081526040808320338452909152902054828110156105145760405162461bcd60e51b815260206004820152602860248201527f45524332303a207472616e7366657220616d6f756e74206578636565647320616044820152676c6c6f77616e636560c01b60648201526084015b60405180910390fd5b6105218533858403610a72565b60019150505b9392505050565b427f000000000000000000000000000000000000000000000000000000000000000067ffffffffffffffff16610562610c23565b61056c91906116a3565b11156105ba5760405162461bcd60e51b815260206004820152601960248201527f677261636520706572696f64206e6f74206f7665722079657400000000000000604482015260640161050b565b6005546001600160a01b031633146105e45760405162461bcd60e51b815260040161050b906116bb565b6040516370a0823160e01b81523060048201526000907f00000000000000000000000000000000000000000000000000000000000000006001600160a01b0316906370a082319060240160206040518083038186803b15801561064657600080fd5b505afa15801561065a573d6000803e3d6000fd5b505050506040513d601f19601f8201168201806040525081019061067e91906116f0565b90506106b47f00000000000000000000000000000000000000000000000000000000000000006001600160a01b03163383610c7e565b33ff5b3360008181526001602090815260408083206001600160a01b038716845290915281205490916104749185906106ee9086906116a3565b610a72565b6106fb610ce1565b6107395760405162461bcd60e51b815260206004820152600f60248201526e1b9bdd081cdd185c9d1959081e595d608a1b604482015260640161050b565b61074233610d16565b565b6005546001600160a01b0316331461076e5760405162461bcd60e51b815260040161050b906116bb565b6107426000610dd9565b6060600480546103e490611652565b61078f610ce1565b6107cd5760405162461bcd60e51b815260206004820152600f60248201526e1b9bdd081cdd185c9d1959081e595d608a1b604482015260640161050b565b6005546001600160a01b031633146107f75760405162461bcd60e51b815260040161050b906116bb565b61080081610d16565b50565b3360009081526001602090815260408083206001600160a01b0386168452909152812054828110156108855760405162461bcd60e51b815260206004820152602560248201527f45524332303a2064656372656173656420616c6c6f77616e63652062656c6f77604482015264207a65726f60d81b606482015260840161050b565b6108923385858403610a72565b5060019392505050565b6000610474338484610b96565b6108b1610ce1565b156108f05760405162461bcd60e51b815260206004820152600f60248201526e185b1c9958591e481cdd185c9d1959608a1b604482015260640161050b565b6109257f00000000000000000000000000000000000000000000000000000000000000006001600160a01b0316333084610e2b565b6108003382610e69565b6000610939610ce1565b158061094e57506001600160a01b0382163b15155b1561095b57506000919050565b6001600160a01b038216600090815260208181526040808320546006909252822054909161271061098a610f48565b67ffffffffffffffff1661099e84866116a3565b6109a89190611709565b6109b2919061173e565b90508181116109c3575060006109c7565b8190035b828111156109d25750815b949350505050565b6005546001600160a01b03163314610a045760405162461bcd60e51b815260040161050b906116bb565b6001600160a01b038116610a695760405162461bcd60e51b815260206004820152602660248201527f4f776e61626c653a206e6577206f776e657220697320746865207a65726f206160448201526564647265737360d01b606482015260840161050b565b61080081610dd9565b6001600160a01b038316610ad45760405162461bcd60e51b8152602060048201526024808201527f45524332303a20617070726f76652066726f6d20746865207a65726f206164646044820152637265737360e01b606482015260840161050b565b6001600160a01b038216610b355760405162461bcd60e51b815260206004820152602260248201527f45524332303a20617070726f766520746f20746865207a65726f206164647265604482015261737360f01b606482015260840161050b565b6001600160a01b0383811660008181526001602090815260408083209487168084529482529182902085905590518481527f8c5be1e5ebec7d5bd14f71427d1e84f3dd0314c0f7b2291e5b200ac8c7c3b925910160405180910390a3505050565b6001600160a01b03831660009081526006602052604090205415610c135760405162461bcd60e51b815260206004820152602e60248201527f6f7574676f696e67207472616e736665727320617265206c6f636b656420666f60448201526d1c881d1a1a5cc81858d8dbdd5b9d60921b606482015260840161050b565b610c1e838383611011565b505050565b6000610c6f7f00000000000000000000000000000000000000000000000000000000000000007f0000000000000000000000000000000000000000000000000000000000000000611752565b67ffffffffffffffff16905090565b6040516001600160a01b038316602482015260448101829052610c1e90849063a9059cbb60e01b906064015b60408051601f198184030181529190526020810180516001600160e01b03166001600160e01b0319909316929092179091526111df565b67ffffffffffffffff4281167f0000000000000000000000000000000000000000000000000000000000000000909116111590565b6000610d218261092f565b905060008111610d695760405162461bcd60e51b81526020600482015260136024820152726e6f7468696e6720746f20776974686472617760681b604482015260640161050b565b610d7382826112b1565b6001600160a01b03821660009081526006602052604081208054839290610d9b9084906116a3565b90915550610dd590506001600160a01b037f0000000000000000000000000000000000000000000000000000000000000000168383610c7e565b5050565b600580546001600160a01b038381166001600160a01b0319831681179093556040519116919082907f8be0079c531659141344cd1fd0a4f28419497f9722a3daafe3b4186f6b6457e090600090a35050565b6040516001600160a01b0380851660248301528316604482015260648101829052610e639085906323b872dd60e01b90608401610caa565b50505050565b6001600160a01b038216610ebf5760405162461bcd60e51b815260206004820152601f60248201527f45524332303a206d696e7420746f20746865207a65726f206164647265737300604482015260640161050b565b8060026000828254610ed191906116a3565b90915550506001600160a01b03821660009081526020819052604081208054839290610efe9084906116a3565b90915550506040518181526001600160a01b038316906000907fddf252ad1be2c89b69c2b068fc378daa952ba7f163c4a11628f55a4df523b3ef9060200160405180910390a35050565b60004267ffffffffffffffff7f000000000000000000000000000000000000000000000000000000000000000081169082161015610f8857600091505090565b610f90610c23565b8167ffffffffffffffff1610610fa95761271091505090565b7f0000000000000000000000000000000000000000000000000000000000000000612710610ff77f00000000000000000000000000000000000000000000000000000000000000008461177e565b61100191906117a7565b61100b91906117d7565b91505090565b6001600160a01b0383166110755760405162461bcd60e51b815260206004820152602560248201527f45524332303a207472616e736665722066726f6d20746865207a65726f206164604482015264647265737360d81b606482015260840161050b565b6001600160a01b0382166110d75760405162461bcd60e51b815260206004820152602360248201527f45524332303a207472616e7366657220746f20746865207a65726f206164647260448201526265737360e81b606482015260840161050b565b6001600160a01b0383166000908152602081905260409020548181101561114f5760405162461bcd60e51b815260206004820152602660248201527f45524332303a207472616e7366657220616d6f756e7420657863656564732062604482015265616c616e636560d01b606482015260840161050b565b6001600160a01b038085166000908152602081905260408082208585039055918516815290812080548492906111869084906116a3565b92505081905550826001600160a01b0316846001600160a01b03167fddf252ad1be2c89b69c2b068fc378daa952ba7f163c4a11628f55a4df523b3ef846040516111d291815260200190565b60405180910390a3610e63565b6000611234826040518060400160405280602081526020017f5361666545524332303a206c6f772d6c6576656c2063616c6c206661696c6564815250856001600160a01b03166113ff9092919063ffffffff16565b805190915015610c1e578080602001905181019061125291906117fe565b610c1e5760405162461bcd60e51b815260206004820152602a60248201527f5361666545524332303a204552433230206f7065726174696f6e20646964206e6044820152691bdd081cdd58d8d9595960b21b606482015260840161050b565b6001600160a01b0382166113115760405162461bcd60e51b815260206004820152602160248201527f45524332303a206275726e2066726f6d20746865207a65726f206164647265736044820152607360f81b606482015260840161050b565b6001600160a01b038216600090815260208190526040902054818110156113855760405162461bcd60e51b815260206004820152602260248201527f45524332303a206275726e20616d6f756e7420657863656564732062616c616e604482015261636560f01b606482015260840161050b565b6001600160a01b03831660009081526020819052604081208383039055600280548492906113b4908490611820565b90915550506040518281526000906001600160a01b038516907fddf252ad1be2c89b69c2b068fc378daa952ba7f163c4a11628f55a4df523b3ef9060200160405180910390a3505050565b60606109d2848460008585843b6114585760405162461bcd60e51b815260206004820152601d60248201527f416464726573733a2063616c6c20746f206e6f6e2d636f6e7472616374000000604482015260640161050b565b600080866001600160a01b031685876040516114749190611837565b60006040518083038185875af1925050503d80600081146114b1576040519150601f19603f3d011682016040523d82523d6000602084013e6114b6565b606091505b50915091506114c68282866114d1565b979650505050505050565b606083156114e0575081610527565b8251156114f05782518084602001fd5b8160405162461bcd60e51b815260040161050b9190611536565b60005b8381101561152557818101518382015260200161150d565b83811115610e635750506000910152565b602081526000825180602084015261155581604085016020870161150a565b601f01601f19169190910160400192915050565b80356001600160a01b038116811461158057600080fd5b919050565b6000806040838503121561159857600080fd5b6115a183611569565b946020939093013593505050565b6000806000606084860312156115c457600080fd5b6115cd84611569565b92506115db60208501611569565b9150604084013590509250925092565b6000602082840312156115fd57600080fd5b61052782611569565b60006020828403121561161857600080fd5b5035919050565b6000806040838503121561163257600080fd5b61163b83611569565b915061164960208401611569565b90509250929050565b600181811c9082168061166657607f821691505b6020821081141561168757634e487b7160e01b600052602260045260246000fd5b50919050565b634e487b7160e01b600052601160045260246000fd5b600082198211156116b6576116b661168d565b500190565b6020808252818101527f4f776e61626c653a2063616c6c6572206973206e6f7420746865206f776e6572604082015260600190565b60006020828403121561170257600080fd5b5051919050565b60008160001904831182151516156117235761172361168d565b500290565b634e487b7160e01b600052601260045260246000fd5b60008261174d5761174d611728565b500490565b600067ffffffffffffffff8083168185168083038211156117755761177561168d565b01949350505050565b600067ffffffffffffffff8381169083168181101561179f5761179f61168d565b039392505050565b600067ffffffffffffffff808316818516818304811182151516156117ce576117ce61168d565b02949350505050565b600067ffffffffffffffff808416806117f2576117f2611728565b92169190910492915050565b60006020828403121561181057600080fd5b8151801515811461052757600080fd5b6000828210156118325761183261168d565b500390565b6000825161184981846020870161150a565b919091019291505056fea264697066735822122027b562a8b612d8c23cf6ba53822853e4a2cbe189530fb2f6f5d732c8691559e564736f6c63430008090033",
  "devdoc": {
    "kind": "dev",
    "methods": {
      "allowance(address,address)": {
        "details": "See {IERC20-allowance}."
      },
      "approve(address,uint256)": {
        "details": "See {IERC20-approve}. Requirements: - `spender` cannot be the zero address."
      },
      "balanceOf(address)": {
        "details": "See {IERC20-balanceOf}."
      },
      "constructor": {
        "params": {
          "_duration": "time (in seconds) it takes for vesting to allow full withdrawals",
          "_gracePeriod": "time (in seconds) after the original duration until admin clawback actions are enabled",
          "_quartz": "the address of the QUARTZ token contract",
          "_start": "timestamp at which withdrawals are enabled"
        }
      },
      "decimals()": {
        "details": "Returns the number of decimals used to get its user representation. For example, if `decimals` equals `2`, a balance of `505` tokens should be displayed to a user as `5.05` (`505 / 10 ** 2`). Tokens usually opt for a value of 18, imitating the relationship between Ether and Wei. This is the value {ERC20} uses, unless this function is overridden; NOTE: This information is only used for _display_ purposes: it in no way affects any of the arithmetic of the contract, including {IERC20-balanceOf} and {IERC20-transfer}."
      },
      "decreaseAllowance(address,uint256)": {
        "details": "Atomically decreases the allowance granted to `spender` by the caller. This is an alternative to {approve} that can be used as a mitigation for problems described in {IERC20-approve}. Emits an {Approval} event indicating the updated allowance. Requirements: - `spender` cannot be the zero address. - `spender` must have allowance for the caller of at least `subtractedValue`."
      },
      "deposit(uint256)": {
        "params": {
          "_amount": "Amount of QUARTZ to lock"
        }
      },
      "increaseAllowance(address,uint256)": {
        "details": "Atomically increases the allowance granted to `spender` by the caller. This is an alternative to {approve} that can be used as a mitigation for problems described in {IERC20-approve}. Emits an {Approval} event indicating the updated allowance. Requirements: - `spender` cannot be the zero address."
      },
      "name()": {
        "details": "Returns the name of the token."
      },
      "owner()": {
        "details": "Returns the address of the current owner."
      },
      "renounceOwnership()": {
        "details": "Leaves the contract without owner. It will not be possible to call `onlyOwner` functions anymore. Can only be called by the current owner. NOTE: Renouncing ownership will leave the contract without an owner, thereby removing any functionality that is only available to the owner."
      },
      "symbol()": {
        "details": "Returns the symbol of the token, usually a shorter version of the name."
      },
      "totalSupply()": {
        "details": "See {IERC20-totalSupply}."
      },
      "transfer(address,uint256)": {
        "details": "See {IERC20-transfer}. Requirements: - `recipient` cannot be the zero address. - the caller must have a balance of at least `amount`."
      },
      "transferFrom(address,address,uint256)": {
        "details": "See {IERC20-transferFrom}. Emits an {Approval} event indicating the updated allowance. This is not required by the EIP. See the note at the beginning of {ERC20}. Requirements: - `sender` and `recipient` cannot be the zero address. - `sender` must have a balance of at least `amount`. - the caller must have allowance for ``sender``'s tokens of at least `amount`."
      },
      "transferOwnership(address)": {
        "details": "Transfers ownership of the contract to a new account (`newOwner`). Can only be called by the current owner."
      },
      "withdrawFor(address)": {
        "params": {
          "_beneficiary": "Beneficiary account to withdraw from"
        }
      },
      "withdrawable(address)": {
        "params": {
          "_beneficiary": "Beneficiary account"
        }
      }
    },
    "version": 1
  },
  "userdoc": {
    "kind": "user",
    "methods": {
      "clawback()": {
        "notice": "Once grace period is over, allows owner to retrieve back any remaining quartz and selfdestruct the contract"
      },
      "deposit(uint256)": {
        "notice": "Locks QUARTZ into the contract, in exchange for an equal amount of freshly minted vestedQUARTZCan only be called before the specified start date"
      },
      "withdraw()": {
        "notice": "Burns vestedQUARTZ from the sender's balance, and transfers him an equal amount of QUARTZCan only be called after the specified start dateAmount to transfer is given the sender's current vestedQUARTZ balance, and restricted by vesting rulesWithdrawing blocks future outgoing transfers from this account"
      },
      "withdrawFor(address)": {
        "notice": "Burns vestedQUARTZ from a given beneficiary's balance, and transfers him an equal amount of QUARTZCan only be called after the specified start dateAmount to transfer is given the beneficiary's current vestedQUARTZ balance, and restricted by vesting rulesCan only be called by the owner, to force rewards to be redeemed if necessaryWithdrawing blocks future outgoing transfers from this account"
      },
      "withdrawable(address)": {
        "notice": "Calculates how much vestedQUARTZ can be currently redeemed by a beneficiaryIf start date hasn't been reached yet, or if beneficiary is a contract, withdrawable amount is always 0."
      }
    },
    "notice": "A contract that locks QUARTZ in exchange for freshly minted vestedQUARTZ Meant to be used to give away rewards that then get subject to vesting rules.A start date and a duration are specified on deploy. Before the start date, QUARTZ may be sent to the contract, to mint vestedQUARTZ. Once `start` is reached, no deposits are allowed (to prevent mistakes), and withdrawals are now enabled. Withdrawal limits increase linearly during `duration`, so that after the final end date, holders of vestedQUARTZ are able to exchange 100% of it for QUARTZ.In order to prevent users from circumventing the vesting logic, we block outgoing transfer for any account that has redeemed vestedQUARTZ. This prevents redeemers from redeeming in the middle of the period, then sending remaining tokens to a separate wallet, where they'd be able to redeem an extra share again (effectively being able to redeem 75% when only 50% would be allowed)Quartz can only be redeemed by user-accounts, not contracts. This is implemented to prevent staking contracts and other Dapps from maliciously redeeming user tokens",
    "version": 1
  },
  "storageLayout": {
    "storage": [
      {
        "astId": 883,
        "contract": "contracts/VestedRewards.sol:VestedRewards",
        "label": "_balances",
        "offset": 0,
        "slot": "0",
        "type": "t_mapping(t_address,t_uint256)"
      },
      {
        "astId": 889,
        "contract": "contracts/VestedRewards.sol:VestedRewards",
        "label": "_allowances",
        "offset": 0,
        "slot": "1",
        "type": "t_mapping(t_address,t_mapping(t_address,t_uint256))"
      },
      {
        "astId": 891,
        "contract": "contracts/VestedRewards.sol:VestedRewards",
        "label": "_totalSupply",
        "offset": 0,
        "slot": "2",
        "type": "t_uint256"
      },
      {
        "astId": 893,
        "contract": "contracts/VestedRewards.sol:VestedRewards",
        "label": "_name",
        "offset": 0,
        "slot": "3",
        "type": "t_string_storage"
      },
      {
        "astId": 895,
        "contract": "contracts/VestedRewards.sol:VestedRewards",
        "label": "_symbol",
        "offset": 0,
        "slot": "4",
        "type": "t_string_storage"
      },
      {
        "astId": 7,
        "contract": "contracts/VestedRewards.sol:VestedRewards",
        "label": "_owner",
        "offset": 0,
        "slot": "5",
        "type": "t_address"
      },
      {
        "astId": 2169,
        "contract": "contracts/VestedRewards.sol:VestedRewards",
        "label": "withdrawals",
        "offset": 0,
        "slot": "6",
        "type": "t_mapping(t_address,t_uint256)"
      }
    ],
    "types": {
      "t_address": {
        "encoding": "inplace",
        "label": "address",
        "numberOfBytes": "20"
      },
      "t_mapping(t_address,t_mapping(t_address,t_uint256))": {
        "encoding": "mapping",
        "key": "t_address",
        "label": "mapping(address => mapping(address => uint256))",
        "numberOfBytes": "32",
        "value": "t_mapping(t_address,t_uint256)"
      },
      "t_mapping(t_address,t_uint256)": {
        "encoding": "mapping",
        "key": "t_address",
        "label": "mapping(address => uint256)",
        "numberOfBytes": "32",
        "value": "t_uint256"
      },
      "t_string_storage": {
        "encoding": "bytes",
        "label": "string",
        "numberOfBytes": "32"
      },
      "t_uint256": {
        "encoding": "inplace",
        "label": "uint256",
        "numberOfBytes": "32"
      }
    }
  }
}